{
  "_format": "hh-sol-artifact-1",
  "contractName": "ChainPay_Airtime",
  "sourceName": "evm-contracts/contracts/chainpay_airtime.sol",
  "abi": [
    {
      "inputs": [
        {
          "internalType": "address",
          "name": "_initialToken",
          "type": "address"
        }
      ],
      "stateMutability": "nonpayable",
      "type": "constructor"
    },
    {
      "inputs": [
        {
          "internalType": "address",
          "name": "owner",
          "type": "address"
        }
      ],
      "name": "OwnableInvalidOwner",
      "type": "error"
    },
    {
      "inputs": [
        {
          "internalType": "address",
          "name": "account",
          "type": "address"
        }
      ],
      "name": "OwnableUnauthorizedAccount",
      "type": "error"
    },
    {
      "inputs": [],
      "name": "ReentrancyGuardReentrantCall",
      "type": "error"
    },
    {
      "inputs": [
        {
          "internalType": "address",
          "name": "token",
          "type": "address"
        }
      ],
      "name": "SafeERC20FailedOperation",
      "type": "error"
    },
    {
      "anonymous": false,
      "inputs": [
        {
          "indexed": true,
          "internalType": "uint256",
          "name": "txId",
          "type": "uint256"
        },
        {
          "indexed": true,
          "internalType": "address",
          "name": "user",
          "type": "address"
        },
        {
          "indexed": false,
          "internalType": "string",
          "name": "phoneNumber",
          "type": "string"
        },
        {
          "indexed": false,
          "internalType": "uint256",
          "name": "amount",
          "type": "uint256"
        },
        {
          "indexed": false,
          "internalType": "enum ChainPay_Airtime.Network",
          "name": "network",
          "type": "uint8"
        },
        {
          "indexed": false,
          "internalType": "address",
          "name": "token",
          "type": "address"
        },
        {
          "indexed": false,
          "internalType": "uint256",
          "name": "timestamp",
          "type": "uint256"
        }
      ],
      "name": "AirtimePurchase",
      "type": "event"
    },
    {
      "anonymous": false,
      "inputs": [
        {
          "indexed": true,
          "internalType": "address",
          "name": "previousOwner",
          "type": "address"
        },
        {
          "indexed": true,
          "internalType": "address",
          "name": "newOwner",
          "type": "address"
        }
      ],
      "name": "OwnershipTransferred",
      "type": "event"
    },
    {
      "anonymous": false,
      "inputs": [
        {
          "indexed": true,
          "internalType": "address",
          "name": "token",
          "type": "address"
        }
      ],
      "name": "TokenAdded",
      "type": "event"
    },
    {
      "anonymous": false,
      "inputs": [
        {
          "indexed": true,
          "internalType": "address",
          "name": "token",
          "type": "address"
        }
      ],
      "name": "TokenRemoved",
      "type": "event"
    },
    {
      "anonymous": false,
      "inputs": [
        {
          "indexed": true,
          "internalType": "address",
          "name": "admin",
          "type": "address"
        },
        {
          "indexed": false,
          "internalType": "address",
          "name": "token",
          "type": "address"
        },
        {
          "indexed": false,
          "internalType": "uint256",
          "name": "amount",
          "type": "uint256"
        },
        {
          "indexed": false,
          "internalType": "uint256",
          "name": "timestamp",
          "type": "uint256"
        }
      ],
      "name": "Withdrawal",
      "type": "event"
    },
    {
      "inputs": [
        {
          "internalType": "address",
          "name": "",
          "type": "address"
        }
      ],
      "name": "acceptedTokens",
      "outputs": [
        {
          "internalType": "bool",
          "name": "",
          "type": "bool"
        }
      ],
      "stateMutability": "view",
      "type": "function"
    },
    {
      "inputs": [
        {
          "internalType": "address",
          "name": "token",
          "type": "address"
        }
      ],
      "name": "addAcceptedToken",
      "outputs": [],
      "stateMutability": "nonpayable",
      "type": "function"
    },
    {
      "inputs": [
        {
          "internalType": "string",
          "name": "phoneNumber",
          "type": "string"
        },
        {
          "internalType": "uint256",
          "name": "amount",
          "type": "uint256"
        },
        {
          "internalType": "enum ChainPay_Airtime.Network",
          "name": "network",
          "type": "uint8"
        },
        {
          "internalType": "address",
          "name": "token",
          "type": "address"
        }
      ],
      "name": "buyAirtime",
      "outputs": [],
      "stateMutability": "nonpayable",
      "type": "function"
    },
    {
      "inputs": [],
      "name": "owner",
      "outputs": [
        {
          "internalType": "address",
          "name": "",
          "type": "address"
        }
      ],
      "stateMutability": "view",
      "type": "function"
    },
    {
      "inputs": [
        {
          "internalType": "address",
          "name": "token",
          "type": "address"
        }
      ],
      "name": "removeAcceptedToken",
      "outputs": [],
      "stateMutability": "nonpayable",
      "type": "function"
    },
    {
      "inputs": [],
      "name": "renounceOwnership",
      "outputs": [],
      "stateMutability": "nonpayable",
      "type": "function"
    },
    {
      "inputs": [],
      "name": "transactionCounter",
      "outputs": [
        {
          "internalType": "uint256",
          "name": "",
          "type": "uint256"
        }
      ],
      "stateMutability": "view",
      "type": "function"
    },
    {
      "inputs": [
        {
          "internalType": "uint256",
          "name": "",
          "type": "uint256"
        }
      ],
      "name": "transactions",
      "outputs": [
        {
          "internalType": "address",
          "name": "user",
          "type": "address"
        },
        {
          "internalType": "string",
          "name": "phoneNumber",
          "type": "string"
        },
        {
          "internalType": "uint256",
          "name": "amount",
          "type": "uint256"
        },
        {
          "internalType": "enum ChainPay_Airtime.Network",
          "name": "network",
          "type": "uint8"
        },
        {
          "internalType": "address",
          "name": "token",
          "type": "address"
        },
        {
          "internalType": "uint256",
          "name": "timestamp",
          "type": "uint256"
        },
        {
          "internalType": "bool",
          "name": "completed",
          "type": "bool"
        }
      ],
      "stateMutability": "view",
      "type": "function"
    },
    {
      "inputs": [
        {
          "internalType": "address",
          "name": "newOwner",
          "type": "address"
        }
      ],
      "name": "transferOwnership",
      "outputs": [],
      "stateMutability": "nonpayable",
      "type": "function"
    },
    {
      "inputs": [
        {
          "internalType": "address",
          "name": "token",
          "type": "address"
        },
        {
          "internalType": "uint256",
          "name": "amount",
          "type": "uint256"
        }
      ],
      "name": "withdrawFunds",
      "outputs": [],
      "stateMutability": "nonpayable",
      "type": "function"
    }
  ],
  "bytecode": "0x608060405234801561001057600080fd5b50604051610fe6380380610fe683398101604081905261002f91610131565b338061005657604051631e4fbdf760e01b8152600060048201526024015b60405180910390fd5b61005f816100e1565b50600180556001600160a01b0381166100ba5760405162461bcd60e51b815260206004820152601560248201527f496e76616c696420746f6b656e20616464726573730000000000000000000000604482015260640161004d565b6001600160a01b03166000908152600260205260409020805460ff19166001179055610161565b600080546001600160a01b038381166001600160a01b0319831681178455604051919092169283917f8be0079c531659141344cd1fd0a4f28419497f9722a3daafe3b4186f6b6457e09190a35050565b60006020828403121561014357600080fd5b81516001600160a01b038116811461015a57600080fd5b9392505050565b610e76806101706000396000f3fe608060405234801561001057600080fd5b50600436106100be5760003560e01c80638ecb30d211610076578063c10753291161005b578063c107532914610183578063d8134a2314610196578063f2fde38b146101a957600080fd5b80638ecb30d21461014a5780639ace38c21461015d57600080fd5b8063715018a6116100a7578063715018a6146100f457806382dc4a05146100fc5780638da5cb5b1461012f57600080fd5b806314e887e8146100c35780633eee83f1146100df575b600080fd5b6100cc60045481565b6040519081526020015b60405180910390f35b6100f26100ed366004610ab3565b6101bc565b005b6100f26102d4565b61011f61010a366004610ab3565b60026020526000908152604090205460ff1681565b60405190151581526020016100d6565b6000546040516001600160a01b0390911681526020016100d6565b6100f2610158366004610ad5565b6102e8565b61017061016b366004610b78565b6104d0565b6040516100d69796959493929190610bc9565b6100f2610191366004610c65565b6105ae565b6100f26101a4366004610ab3565b610692565b6100f26101b7366004610ab3565b61074b565b6101c46107a2565b6001600160a01b03811661021f5760405162461bcd60e51b815260206004820152601560248201527f496e76616c696420746f6b656e2061646472657373000000000000000000000060448201526064015b60405180910390fd5b6001600160a01b03811660009081526002602052604090205460ff16156102885760405162461bcd60e51b815260206004820152601660248201527f546f6b656e20616c7265616479206163636570746564000000000000000000006044820152606401610216565b6001600160a01b038116600081815260026020526040808220805460ff19166001179055517f784c8f4dbf0ffedd6e72c76501c545a70f8b203b30a26ce542bf92ba87c248a49190a250565b6102dc6107a2565b6102e660006107e8565b565b6102f0610845565b6102fa8184610888565b6004805460010190556040805160e08101825233815281516020601f88018190048102820181019093528681529091808301919088908890819084018382808284376000920191909152505050908252506020810185905260400183600381111561036757610367610b91565b81526001600160a01b0383811660208084019190915242604080850191909152600060609094018490526004548452600382529092208351815473ffffffffffffffffffffffffffffffffffffffff191692169190911781559082015160018201906103d39082610d26565b506040820151816002015560608201518160030160006101000a81548160ff0219169083600381111561040857610408610b91565b021790555060808201516003820180547fffffffffffffffffffffff0000000000000000000000000000000000000000ff166101006001600160a01b039093169290920291909117905560a082015160048083019190915560c0909201516005909101805460ff1916911515919091179055546040513391907f2df5a567f1393168cd4f11d8f3f1a0315474d4d0392de47d9fbc7528b0e8620c906104b890899089908990899089904290610de5565b60405180910390a36104c960018055565b5050505050565b600360205260009081526040902080546001820180546001600160a01b0390921692916104fc90610ca5565b80601f016020809104026020016040519081016040528092919081815260200182805461052890610ca5565b80156105755780601f1061054a57610100808354040283529160200191610575565b820191906000526020600020905b81548152906001019060200180831161055857829003601f168201915b505050506002830154600384015460048501546005909501549394919360ff80831694506101009092046001600160a01b031692911687565b6105b66107a2565b6105be610845565b6001600160a01b03821660009081526002602052604090205460ff166106265760405162461bcd60e51b815260206004820152601360248201527f546f6b656e206e6f7420737570706f72746564000000000000000000000000006044820152606401610216565b61063a6001600160a01b0383163383610955565b604080516001600160a01b0384168152602081018390524281830152905133917fc2b4a290c20fb28939d29f102514fbffd2b73c059ffba8b78250c94161d5fcc6919081900360600190a261068e60018055565b5050565b61069a6107a2565b6001600160a01b03811660009081526002602052604090205460ff166107025760405162461bcd60e51b815260206004820152601260248201527f546f6b656e206e6f7420616363657074656400000000000000000000000000006044820152606401610216565b6001600160a01b038116600081815260026020526040808220805460ff19169055517f4c910b69fe65a61f7531b9c5042b2329ca7179c77290aa7e2eb3afa3c8511fd39190a250565b6107536107a2565b6001600160a01b038116610796576040517f1e4fbdf700000000000000000000000000000000000000000000000000000000815260006004820152602401610216565b61079f816107e8565b50565b6000546001600160a01b031633146102e6576040517f118cdaa7000000000000000000000000000000000000000000000000000000008152336004820152602401610216565b600080546001600160a01b0383811673ffffffffffffffffffffffffffffffffffffffff19831681178455604051919092169283917f8be0079c531659141344cd1fd0a4f28419497f9722a3daafe3b4186f6b6457e09190a35050565b600260015403610881576040517f3ee5aeb500000000000000000000000000000000000000000000000000000000815260040160405180910390fd5b6002600155565b6001600160a01b03821660009081526002602052604090205460ff166108f05760405162461bcd60e51b815260206004820152601360248201527f546f6b656e206e6f7420737570706f72746564000000000000000000000000006044820152606401610216565b600081116109405760405162461bcd60e51b815260206004820152600e60248201527f496e76616c696420616d6f756e740000000000000000000000000000000000006044820152606401610216565b61068e6001600160a01b0383163330846109ce565b6040516001600160a01b038381166024830152604482018390526109c991859182169063a9059cbb906064015b604051602081830303815290604052915060e01b6020820180517bffffffffffffffffffffffffffffffffffffffffffffffffffffffff8381831617835250505050610a0d565b505050565b6040516001600160a01b038481166024830152838116604483015260648201839052610a079186918216906323b872dd90608401610982565b50505050565b600080602060008451602086016000885af180610a30576040513d6000823e3d81fd5b50506000513d91508115610a48578060011415610a55565b6001600160a01b0384163b155b15610a07576040517f5274afe70000000000000000000000000000000000000000000000000000000081526001600160a01b0385166004820152602401610216565b80356001600160a01b0381168114610aae57600080fd5b919050565b600060208284031215610ac557600080fd5b610ace82610a97565b9392505050565b600080600080600060808688031215610aed57600080fd5b853567ffffffffffffffff811115610b0457600080fd5b8601601f81018813610b1557600080fd5b803567ffffffffffffffff811115610b2c57600080fd5b886020828401011115610b3e57600080fd5b6020918201965094508601359250604086013560048110610b5e57600080fd5b9150610b6c60608701610a97565b90509295509295909350565b600060208284031215610b8a57600080fd5b5035919050565b634e487b7160e01b600052602160045260246000fd5b60048110610bc557634e487b7160e01b600052602160045260246000fd5b9052565b6001600160a01b038816815260e06020820152600087518060e084015260005b81811015610c07576020818b01810151610100868401015201610be9565b5060006101008285010152610100601f19601f830116840101915050866040830152610c366060830187610ba7565b6001600160a01b03851660808301528360a0830152610c5960c083018415159052565b98975050505050505050565b60008060408385031215610c7857600080fd5b610c8183610a97565b946020939093013593505050565b634e487b7160e01b600052604160045260246000fd5b600181811c90821680610cb957607f821691505b602082108103610cd957634e487b7160e01b600052602260045260246000fd5b50919050565b601f8211156109c957806000526020600020601f840160051c81016020851015610d065750805b601f840160051c820191505b818110156104c95760008155600101610d12565b815167ffffffffffffffff811115610d4057610d40610c8f565b610d5481610d4e8454610ca5565b84610cdf565b6020601f821160018114610d885760008315610d705750848201515b600019600385901b1c1916600184901b1784556104c9565b600084815260208120601f198516915b82811015610db85787850151825560209485019460019092019101610d98565b5084821015610dd65786840151600019600387901b60f8161c191681555b50505050600190811b01905550565b60a081528560a0820152858760c0830137600060c08783010152600060c0601f19601f8901168301019050856020830152610e236040830186610ba7565b6001600160a01b039390931660608201526080015294935050505056fea264697066735822122035eaae82bc17ed96569468d29f14fe03e11c2ea0b09b0fd089cfd7cac84fb12b64736f6c634300081c0033",
  "linkReferences": {},
  "deployedLinkReferences": {}
}