{
  "_format": "hh-sol-artifact-1",
  "contractName": "ChainPay_Airtime",
  "sourceName": "evm-contracts/contracts/chainpay_airtime.sol",
  "abi": [
    {
      "inputs": [
        {
          "internalType": "address",
          "name": "_usdcToken",
          "type": "address"
        }
      ],
      "stateMutability": "nonpayable",
      "type": "constructor"
    },
    {
      "inputs": [
        {
          "internalType": "address",
          "name": "owner",
          "type": "address"
        }
      ],
      "name": "OwnableInvalidOwner",
      "type": "error"
    },
    {
      "inputs": [
        {
          "internalType": "address",
          "name": "account",
          "type": "address"
        }
      ],
      "name": "OwnableUnauthorizedAccount",
      "type": "error"
    },
    {
      "anonymous": false,
      "inputs": [
        {
          "indexed": true,
          "internalType": "address",
          "name": "user",
          "type": "address"
        },
        {
          "indexed": false,
          "internalType": "string",
          "name": "phoneNumber",
          "type": "string"
        },
        {
          "indexed": false,
          "internalType": "uint256",
          "name": "amount",
          "type": "uint256"
        },
        {
          "indexed": false,
          "internalType": "string",
          "name": "network",
          "type": "string"
        },
        {
          "indexed": false,
          "internalType": "address",
          "name": "token",
          "type": "address"
        },
        {
          "indexed": false,
          "internalType": "uint256",
          "name": "timestamp",
          "type": "uint256"
        }
      ],
      "name": "AirtimePurchase",
      "type": "event"
    },
    {
      "anonymous": false,
      "inputs": [
        {
          "indexed": true,
          "internalType": "address",
          "name": "previousOwner",
          "type": "address"
        },
        {
          "indexed": true,
          "internalType": "address",
          "name": "newOwner",
          "type": "address"
        }
      ],
      "name": "OwnershipTransferred",
      "type": "event"
    },
    {
      "anonymous": false,
      "inputs": [
        {
          "indexed": true,
          "internalType": "address",
          "name": "token",
          "type": "address"
        }
      ],
      "name": "TokenAdded",
      "type": "event"
    },
    {
      "anonymous": false,
      "inputs": [
        {
          "indexed": true,
          "internalType": "address",
          "name": "token",
          "type": "address"
        }
      ],
      "name": "TokenRemoved",
      "type": "event"
    },
    {
      "anonymous": false,
      "inputs": [
        {
          "indexed": true,
          "internalType": "address",
          "name": "admin",
          "type": "address"
        },
        {
          "indexed": false,
          "internalType": "address",
          "name": "token",
          "type": "address"
        },
        {
          "indexed": false,
          "internalType": "uint256",
          "name": "amount",
          "type": "uint256"
        },
        {
          "indexed": false,
          "internalType": "uint256",
          "name": "timestamp",
          "type": "uint256"
        }
      ],
      "name": "Withdrawal",
      "type": "event"
    },
    {
      "inputs": [
        {
          "internalType": "address",
          "name": "",
          "type": "address"
        }
      ],
      "name": "acceptedTokens",
      "outputs": [
        {
          "internalType": "bool",
          "name": "",
          "type": "bool"
        }
      ],
      "stateMutability": "view",
      "type": "function"
    },
    {
      "inputs": [
        {
          "internalType": "address",
          "name": "token",
          "type": "address"
        }
      ],
      "name": "addAcceptedToken",
      "outputs": [],
      "stateMutability": "nonpayable",
      "type": "function"
    },
    {
      "inputs": [
        {
          "internalType": "string",
          "name": "phoneNumber",
          "type": "string"
        },
        {
          "internalType": "uint256",
          "name": "amount",
          "type": "uint256"
        },
        {
          "internalType": "string",
          "name": "network",
          "type": "string"
        },
        {
          "internalType": "address",
          "name": "token",
          "type": "address"
        }
      ],
      "name": "buyAirtime",
      "outputs": [],
      "stateMutability": "nonpayable",
      "type": "function"
    },
    {
      "inputs": [],
      "name": "owner",
      "outputs": [
        {
          "internalType": "address",
          "name": "",
          "type": "address"
        }
      ],
      "stateMutability": "view",
      "type": "function"
    },
    {
      "inputs": [
        {
          "internalType": "address",
          "name": "token",
          "type": "address"
        }
      ],
      "name": "removeAcceptedToken",
      "outputs": [],
      "stateMutability": "nonpayable",
      "type": "function"
    },
    {
      "inputs": [],
      "name": "renounceOwnership",
      "outputs": [],
      "stateMutability": "nonpayable",
      "type": "function"
    },
    {
      "inputs": [],
      "name": "transactionCounter",
      "outputs": [
        {
          "internalType": "uint256",
          "name": "",
          "type": "uint256"
        }
      ],
      "stateMutability": "view",
      "type": "function"
    },
    {
      "inputs": [
        {
          "internalType": "uint256",
          "name": "",
          "type": "uint256"
        }
      ],
      "name": "transactions",
      "outputs": [
        {
          "internalType": "address",
          "name": "user",
          "type": "address"
        },
        {
          "internalType": "string",
          "name": "phoneNumber",
          "type": "string"
        },
        {
          "internalType": "uint256",
          "name": "amount",
          "type": "uint256"
        },
        {
          "internalType": "string",
          "name": "serviceType",
          "type": "string"
        },
        {
          "internalType": "string",
          "name": "network",
          "type": "string"
        },
        {
          "internalType": "string",
          "name": "dataPlan",
          "type": "string"
        },
        {
          "internalType": "string",
          "name": "billType",
          "type": "string"
        },
        {
          "internalType": "uint256",
          "name": "timestamp",
          "type": "uint256"
        },
        {
          "internalType": "bool",
          "name": "completed",
          "type": "bool"
        },
        {
          "internalType": "address",
          "name": "token",
          "type": "address"
        }
      ],
      "stateMutability": "view",
      "type": "function"
    },
    {
      "inputs": [
        {
          "internalType": "address",
          "name": "newOwner",
          "type": "address"
        }
      ],
      "name": "transferOwnership",
      "outputs": [],
      "stateMutability": "nonpayable",
      "type": "function"
    },
    {
      "inputs": [
        {
          "internalType": "address",
          "name": "token",
          "type": "address"
        },
        {
          "internalType": "uint256",
          "name": "amount",
          "type": "uint256"
        }
      ],
      "name": "withdrawFunds",
      "outputs": [],
      "stateMutability": "nonpayable",
      "type": "function"
    }
  ],
  "bytecode": "0x608060405234801561001057600080fd5b5060405161131538038061131583398101604081905261002f916100d9565b338061005557604051631e4fbdf760e01b81526000600482015260240160405180910390fd5b61005e81610089565b506001600160a01b03166000908152600160208190526040909120805460ff19169091179055610109565b600080546001600160a01b038381166001600160a01b0319831681178455604051919092169283917f8be0079c531659141344cd1fd0a4f28419497f9722a3daafe3b4186f6b6457e09190a35050565b6000602082840312156100eb57600080fd5b81516001600160a01b038116811461010257600080fd5b9392505050565b6111fd806101186000396000f3fe608060405234801561001057600080fd5b50600436106100be5760003560e01c80639ace38c211610076578063c10753291161005b578063c107532914610186578063d8134a2314610199578063f2fde38b146101ac57600080fd5b80639ace38c21461014a578063b663b8a01461017357600080fd5b8063715018a6116100a7578063715018a6146100f457806382dc4a05146100fc5780638da5cb5b1461012f57600080fd5b806314e887e8146100c35780633eee83f1146100df575b600080fd5b6100cc60035481565b6040519081526020015b60405180910390f35b6100f26100ed366004610d82565b6101bf565b005b6100f26102be565b61011f61010a366004610d82565b60016020526000908152604090205460ff1681565b60405190151581526020016100d6565b6000546040516001600160a01b0390911681526020016100d6565b61015d610158366004610da4565b6102d2565b6040516100d69a99989796959493929190610e03565b6100f2610181366004610ef2565b6105de565b6100f2610194366004610f80565b610886565b6100f26101a7366004610d82565b610a1b565b6100f26101ba366004610d82565b610ad4565b6101c7610b2b565b6001600160a01b038116158015906101f857506001600160a01b03811660009081526001602052604090205460ff16155b61026f5760405162461bcd60e51b815260206004820152602160248201527f496e76616c6964206f7220616c726561647920616363657074656420746f6b6560448201527f6e0000000000000000000000000000000000000000000000000000000000000060648201526084015b60405180910390fd5b6001600160a01b0381166000818152600160208190526040808320805460ff1916909217909155517f784c8f4dbf0ffedd6e72c76501c545a70f8b203b30a26ce542bf92ba87c248a49190a250565b6102c6610b2b565b6102d06000610b71565b565b600260205260009081526040902080546001820180546001600160a01b0390921692916102fe90610faa565b80601f016020809104026020016040519081016040528092919081815260200182805461032a90610faa565b80156103775780601f1061034c57610100808354040283529160200191610377565b820191906000526020600020905b81548152906001019060200180831161035a57829003601f168201915b50505050509080600201549080600301805461039290610faa565b80601f01602080910402602001604051908101604052809291908181526020018280546103be90610faa565b801561040b5780601f106103e05761010080835404028352916020019161040b565b820191906000526020600020905b8154815290600101906020018083116103ee57829003601f168201915b50505050509080600401805461042090610faa565b80601f016020809104026020016040519081016040528092919081815260200182805461044c90610faa565b80156104995780601f1061046e57610100808354040283529160200191610499565b820191906000526020600020905b81548152906001019060200180831161047c57829003601f168201915b5050505050908060050180546104ae90610faa565b80601f01602080910402602001604051908101604052809291908181526020018280546104da90610faa565b80156105275780601f106104fc57610100808354040283529160200191610527565b820191906000526020600020905b81548152906001019060200180831161050a57829003601f168201915b50505050509080600601805461053c90610faa565b80601f016020809104026020016040519081016040528092919081815260200182805461056890610faa565b80156105b55780601f1061058a576101008083540402835291602001916105b5565b820191906000526020600020905b81548152906001019060200180831161059857829003601f168201915b50505050600783015460089093015491929160ff8116915061010090046001600160a01b03168a565b6105e88185610bce565b604051806101400160405280336001600160a01b0316815260200187878080601f0160208091040260200160405190810160405280939291908181526020018383808284376000920191909152505050908252506020808201879052604080518082018252600781527f61697274696d650000000000000000000000000000000000000000000000000081840152818401528051601f870183900483028101830190915285815260609092019190869086908190840183828082843760009201829052509385525050604080516020818101835284825280860191909152815190810182528381529084015250426060830152608082018190526001600160a01b03841660a090920191909152600380546002929190829061070990610fe4565b918290555081526020808201929092526040016000208251815473ffffffffffffffffffffffffffffffffffffffff19166001600160a01b0390911617815590820151600182019061075b9082611070565b50604082015160028201556060820151600382019061077a9082611070565b506080820151600482019061078f9082611070565b5060a082015160058201906107a49082611070565b5060c082015160068201906107b99082611070565b5060e082015160078201556101008083015160089092018054610120909401516001600160a01b03169091027fffffffffffffffffffffff0000000000000000000000000000000000000000ff921515929092167fffffffffffffffffffffff0000000000000000000000000000000000000000009093169290921717905560405133907f3fbf976149ba1c4ec0505321604be15f5c81ce29256fef5e89e51eb7c751a6aa90610876908990899089908990899089904290611158565b60405180910390a2505050505050565b61088e610b2b565b6001600160a01b03821660009081526001602052604090205460ff166108f65760405162461bcd60e51b815260206004820152601360248201527f546f6b656e206e6f7420737570706f72746564000000000000000000000000006044820152606401610266565b6040517fa9059cbb000000000000000000000000000000000000000000000000000000008152336004820152602481018290526001600160a01b0383169063a9059cbb906044016020604051808303816000875af115801561095c573d6000803e3d6000fd5b505050506040513d601f19601f8201168201806040525081019061098091906111a5565b6109cc5760405162461bcd60e51b815260206004820152601160248201527f5769746864726177616c206661696c65640000000000000000000000000000006044820152606401610266565b604080516001600160a01b0384168152602081018390524281830152905133917fc2b4a290c20fb28939d29f102514fbffd2b73c059ffba8b78250c94161d5fcc6919081900360600190a25050565b610a23610b2b565b6001600160a01b03811660009081526001602052604090205460ff16610a8b5760405162461bcd60e51b815260206004820152601260248201527f546f6b656e206e6f7420616363657074656400000000000000000000000000006044820152606401610266565b6001600160a01b038116600081815260016020526040808220805460ff19169055517f4c910b69fe65a61f7531b9c5042b2329ca7179c77290aa7e2eb3afa3c8511fd39190a250565b610adc610b2b565b6001600160a01b038116610b1f576040517f1e4fbdf700000000000000000000000000000000000000000000000000000000815260006004820152602401610266565b610b2881610b71565b50565b6000546001600160a01b031633146102d0576040517f118cdaa7000000000000000000000000000000000000000000000000000000008152336004820152602401610266565b600080546001600160a01b0383811673ffffffffffffffffffffffffffffffffffffffff19831681178455604051919092169283917f8be0079c531659141344cd1fd0a4f28419497f9722a3daafe3b4186f6b6457e09190a35050565b6001600160a01b03821660009081526001602052604090205460ff16610c365760405162461bcd60e51b815260206004820152601360248201527f546f6b656e206e6f7420737570706f72746564000000000000000000000000006044820152606401610266565b60008111610c865760405162461bcd60e51b815260206004820152600e60248201527f496e76616c696420616d6f756e740000000000000000000000000000000000006044820152606401610266565b6040517f23b872dd000000000000000000000000000000000000000000000000000000008152336004820152306024820152604481018290526001600160a01b038316906323b872dd906064016020604051808303816000875af1158015610cf2573d6000803e3d6000fd5b505050506040513d601f19601f82011682018060405250810190610d1691906111a5565b610d625760405162461bcd60e51b815260206004820152600e60248201527f5061796d656e74206661696c65640000000000000000000000000000000000006044820152606401610266565b5050565b80356001600160a01b0381168114610d7d57600080fd5b919050565b600060208284031215610d9457600080fd5b610d9d82610d66565b9392505050565b600060208284031215610db657600080fd5b5035919050565b6000815180845260005b81811015610de357602081850181015186830182015201610dc7565b506000602082860101526020601f19601f83011685010191505092915050565b6001600160a01b038b16815261014060208201526000610e2761014083018c610dbd565b8a60408401528281036060840152610e3f818b610dbd565b90508281036080840152610e53818a610dbd565b905082810360a0840152610e678189610dbd565b905082810360c0840152610e7b8188610dbd565b60e084019690965250509115156101008301526001600160a01b031661012090910152979650505050505050565b60008083601f840112610ebb57600080fd5b50813567ffffffffffffffff811115610ed357600080fd5b602083019150836020828501011115610eeb57600080fd5b9250929050565b60008060008060008060808789031215610f0b57600080fd5b863567ffffffffffffffff811115610f2257600080fd5b610f2e89828a01610ea9565b90975095505060208701359350604087013567ffffffffffffffff811115610f5557600080fd5b610f6189828a01610ea9565b9094509250610f74905060608801610d66565b90509295509295509295565b60008060408385031215610f9357600080fd5b610f9c83610d66565b946020939093013593505050565b600181811c90821680610fbe57607f821691505b602082108103610fde57634e487b7160e01b600052602260045260246000fd5b50919050565b60006001820161100457634e487b7160e01b600052601160045260246000fd5b5060010190565b634e487b7160e01b600052604160045260246000fd5b601f82111561106b57806000526020600020601f840160051c810160208510156110485750805b601f840160051c820191505b818110156110685760008155600101611054565b50505b505050565b815167ffffffffffffffff81111561108a5761108a61100b565b61109e816110988454610faa565b84611021565b6020601f8211600181146110d257600083156110ba5750848201515b600019600385901b1c1916600184901b178455611068565b600084815260208120601f198516915b8281101561110257878501518255602094850194600190920191016110e2565b50848210156111205786840151600019600387901b60f8161c191681555b50505050600190811b01905550565b81835281816020850137506000828201602090810191909152601f909101601f19169091010190565b60a08152600061116c60a08301898b61112f565b876020840152828103604084015261118581878961112f565b6001600160a01b0395909516606084015250506080015295945050505050565b6000602082840312156111b757600080fd5b81518015158114610d9d57600080fdfea2646970667358221220a31d9ba36cf3453d7b1d7146c24bd3bfcceee80b68c99943f0b84d8f27a0f5d664736f6c634300081c0033",
  "linkReferences": {},
  "deployedLinkReferences": {}
}