{
  "_format": "hh-sol-artifact-1",
  "contractName": "ChainPay_Airtime",
  "sourceName": "evm-contracts/contracts/chainpay_airtime.sol",
  "abi": [
    {
      "inputs": [
        {
          "internalType": "address",
          "name": "_initialToken",
          "type": "address"
        }
      ],
      "stateMutability": "nonpayable",
      "type": "constructor"
    },
    {
      "inputs": [
        {
          "internalType": "address",
          "name": "owner",
          "type": "address"
        }
      ],
      "name": "OwnableInvalidOwner",
      "type": "error"
    },
    {
      "inputs": [
        {
          "internalType": "address",
          "name": "account",
          "type": "address"
        }
      ],
      "name": "OwnableUnauthorizedAccount",
      "type": "error"
    },
    {
      "inputs": [],
      "name": "ReentrancyGuardReentrantCall",
      "type": "error"
    },
    {
      "inputs": [
        {
          "internalType": "address",
          "name": "token",
          "type": "address"
        }
      ],
      "name": "SafeERC20FailedOperation",
      "type": "error"
    },
    {
      "anonymous": false,
      "inputs": [
        {
          "indexed": true,
          "internalType": "uint256",
          "name": "txId",
          "type": "uint256"
        },
        {
          "indexed": true,
          "internalType": "address",
          "name": "user",
          "type": "address"
        },
        {
          "indexed": false,
          "internalType": "string",
          "name": "phoneNumber",
          "type": "string"
        },
        {
          "indexed": false,
          "internalType": "uint256",
          "name": "amount",
          "type": "uint256"
        },
        {
          "indexed": false,
          "internalType": "enum ChainPay_Airtime.Network",
          "name": "network",
          "type": "uint8"
        },
        {
          "indexed": false,
          "internalType": "address",
          "name": "token",
          "type": "address"
        },
        {
          "indexed": false,
          "internalType": "uint256",
          "name": "timestamp",
          "type": "uint256"
        },
        {
          "indexed": false,
          "internalType": "string",
          "name": "creditAmount",
          "type": "string"
        }
      ],
      "name": "AirtimePurchase",
      "type": "event"
    },
    {
      "anonymous": false,
      "inputs": [
        {
          "indexed": true,
          "internalType": "address",
          "name": "previousOwner",
          "type": "address"
        },
        {
          "indexed": true,
          "internalType": "address",
          "name": "newOwner",
          "type": "address"
        }
      ],
      "name": "OwnershipTransferred",
      "type": "event"
    },
    {
      "anonymous": false,
      "inputs": [
        {
          "indexed": true,
          "internalType": "address",
          "name": "token",
          "type": "address"
        }
      ],
      "name": "TokenAdded",
      "type": "event"
    },
    {
      "anonymous": false,
      "inputs": [
        {
          "indexed": true,
          "internalType": "address",
          "name": "token",
          "type": "address"
        }
      ],
      "name": "TokenRemoved",
      "type": "event"
    },
    {
      "anonymous": false,
      "inputs": [
        {
          "indexed": true,
          "internalType": "address",
          "name": "admin",
          "type": "address"
        },
        {
          "indexed": false,
          "internalType": "address",
          "name": "token",
          "type": "address"
        },
        {
          "indexed": false,
          "internalType": "uint256",
          "name": "amount",
          "type": "uint256"
        },
        {
          "indexed": false,
          "internalType": "uint256",
          "name": "timestamp",
          "type": "uint256"
        }
      ],
      "name": "Withdrawal",
      "type": "event"
    },
    {
      "inputs": [
        {
          "internalType": "address",
          "name": "",
          "type": "address"
        }
      ],
      "name": "acceptedTokens",
      "outputs": [
        {
          "internalType": "bool",
          "name": "",
          "type": "bool"
        }
      ],
      "stateMutability": "view",
      "type": "function"
    },
    {
      "inputs": [
        {
          "internalType": "address",
          "name": "token",
          "type": "address"
        }
      ],
      "name": "addAcceptedToken",
      "outputs": [],
      "stateMutability": "nonpayable",
      "type": "function"
    },
    {
      "inputs": [
        {
          "internalType": "string",
          "name": "phoneNumber",
          "type": "string"
        },
        {
          "internalType": "uint256",
          "name": "amount",
          "type": "uint256"
        },
        {
          "internalType": "enum ChainPay_Airtime.Network",
          "name": "network",
          "type": "uint8"
        },
        {
          "internalType": "address",
          "name": "token",
          "type": "address"
        },
        {
          "internalType": "string",
          "name": "creditAmount",
          "type": "string"
        }
      ],
      "name": "buyAirtime",
      "outputs": [],
      "stateMutability": "nonpayable",
      "type": "function"
    },
    {
      "inputs": [],
      "name": "owner",
      "outputs": [
        {
          "internalType": "address",
          "name": "",
          "type": "address"
        }
      ],
      "stateMutability": "view",
      "type": "function"
    },
    {
      "inputs": [
        {
          "internalType": "address",
          "name": "token",
          "type": "address"
        }
      ],
      "name": "removeAcceptedToken",
      "outputs": [],
      "stateMutability": "nonpayable",
      "type": "function"
    },
    {
      "inputs": [],
      "name": "renounceOwnership",
      "outputs": [],
      "stateMutability": "nonpayable",
      "type": "function"
    },
    {
      "inputs": [],
      "name": "transactionCounter",
      "outputs": [
        {
          "internalType": "uint256",
          "name": "",
          "type": "uint256"
        }
      ],
      "stateMutability": "view",
      "type": "function"
    },
    {
      "inputs": [
        {
          "internalType": "uint256",
          "name": "",
          "type": "uint256"
        }
      ],
      "name": "transactions",
      "outputs": [
        {
          "internalType": "address",
          "name": "user",
          "type": "address"
        },
        {
          "internalType": "string",
          "name": "phoneNumber",
          "type": "string"
        },
        {
          "internalType": "uint256",
          "name": "amount",
          "type": "uint256"
        },
        {
          "internalType": "enum ChainPay_Airtime.Network",
          "name": "network",
          "type": "uint8"
        },
        {
          "internalType": "address",
          "name": "token",
          "type": "address"
        },
        {
          "internalType": "uint256",
          "name": "timestamp",
          "type": "uint256"
        },
        {
          "internalType": "bool",
          "name": "completed",
          "type": "bool"
        },
        {
          "internalType": "string",
          "name": "creditAmount",
          "type": "string"
        }
      ],
      "stateMutability": "view",
      "type": "function"
    },
    {
      "inputs": [
        {
          "internalType": "address",
          "name": "newOwner",
          "type": "address"
        }
      ],
      "name": "transferOwnership",
      "outputs": [],
      "stateMutability": "nonpayable",
      "type": "function"
    },
    {
      "inputs": [
        {
          "internalType": "address",
          "name": "token",
          "type": "address"
        },
        {
          "internalType": "uint256",
          "name": "amount",
          "type": "uint256"
        }
      ],
      "name": "withdrawFunds",
      "outputs": [],
      "stateMutability": "nonpayable",
      "type": "function"
    }
  ],
  "bytecode": "0x608060405234801561001057600080fd5b5060405161116138038061116183398101604081905261002f91610131565b338061005657604051631e4fbdf760e01b8152600060048201526024015b60405180910390fd5b61005f816100e1565b50600180556001600160a01b0381166100ba5760405162461bcd60e51b815260206004820152601560248201527f496e76616c696420746f6b656e20616464726573730000000000000000000000604482015260640161004d565b6001600160a01b03166000908152600260205260409020805460ff19166001179055610161565b600080546001600160a01b038381166001600160a01b0319831681178455604051919092169283917f8be0079c531659141344cd1fd0a4f28419497f9722a3daafe3b4186f6b6457e09190a35050565b60006020828403121561014357600080fd5b81516001600160a01b038116811461015a57600080fd5b9392505050565b610ff1806101706000396000f3fe608060405234801561001057600080fd5b50600436106100be5760003560e01c80638da5cb5b11610076578063c10753291161005b578063c107532914610184578063d8134a2314610197578063f2fde38b146101aa57600080fd5b80638da5cb5b146101425780639ace38c21461015d57600080fd5b806343379c5b116100a757806343379c5b146100f4578063715018a61461010757806382dc4a051461010f57600080fd5b806314e887e8146100c35780633eee83f1146100df575b600080fd5b6100cc60045481565b6040519081526020015b60405180910390f35b6100f26100ed366004610b9f565b6101bd565b005b6100f2610102366004610c0a565b6102d5565b6100f2610515565b61013261011d366004610b9f565b60026020526000908152604090205460ff1681565b60405190151581526020016100d6565b6000546040516001600160a01b0390911681526020016100d6565b61017061016b366004610cb0565b610529565b6040516100d6989796959493929190610d47565b6100f2610192366004610dbc565b61069a565b6100f26101a5366004610b9f565b61077e565b6100f26101b8366004610b9f565b610837565b6101c561088e565b6001600160a01b0381166102205760405162461bcd60e51b815260206004820152601560248201527f496e76616c696420746f6b656e2061646472657373000000000000000000000060448201526064015b60405180910390fd5b6001600160a01b03811660009081526002602052604090205460ff16156102895760405162461bcd60e51b815260206004820152601660248201527f546f6b656e20616c7265616479206163636570746564000000000000000000006044820152606401610217565b6001600160a01b038116600081815260026020526040808220805460ff19166001179055517f784c8f4dbf0ffedd6e72c76501c545a70f8b203b30a26ce542bf92ba87c248a49190a250565b6102dd6108d4565b6102e78386610917565b600480546001019055604080516101008101825233815281516020601f8a01819004810282018101909352888152909180830191908a908a90819084018382808284376000920191909152505050908252506020810187905260400185600381111561035557610355610d0f565b8152602001846001600160a01b0316815260200142815260200160001515815260200183838080601f016020809104026020016040519081016040528093929190818152602001838380828437600092018290525093909452505060045481526003602090815260409091208351815473ffffffffffffffffffffffffffffffffffffffff19166001600160a01b039091161781559083015190915060018201906104009082610e84565b506040820151816002015560608201518160030160006101000a81548160ff0219169083600381111561043557610435610d0f565b021790555060808201516003820180547fffffffffffffffffffffff0000000000000000000000000000000000000000ff166101006001600160a01b039093169290920291909117905560a0820151600482015560c082015160058201805460ff191691151591909117905560e082015160068201906104b59082610e84565b50506004546040513392507fe4323b99bca0777d9d8825bdc5be5ee38f5369150a23246d8b296e5e7f599554906104fb908b908b908b908b908b9042908c908c90610f6c565b60405180910390a361050c60018055565b50505050505050565b61051d61088e565b61052760006109e4565b565b600360205260009081526040902080546001820180546001600160a01b03909216929161055590610dfc565b80601f016020809104026020016040519081016040528092919081815260200182805461058190610dfc565b80156105ce5780601f106105a3576101008083540402835291602001916105ce565b820191906000526020600020905b8154815290600101906020018083116105b157829003601f168201915b5050505060028301546003840154600485015460058601546006870180549697949660ff80861697506101009095046001600160a01b0316959394909216929161061790610dfc565b80601f016020809104026020016040519081016040528092919081815260200182805461064390610dfc565b80156106905780601f1061066557610100808354040283529160200191610690565b820191906000526020600020905b81548152906001019060200180831161067357829003601f168201915b5050505050905088565b6106a261088e565b6106aa6108d4565b6001600160a01b03821660009081526002602052604090205460ff166107125760405162461bcd60e51b815260206004820152601360248201527f546f6b656e206e6f7420737570706f72746564000000000000000000000000006044820152606401610217565b6107266001600160a01b0383163383610a41565b604080516001600160a01b0384168152602081018390524281830152905133917fc2b4a290c20fb28939d29f102514fbffd2b73c059ffba8b78250c94161d5fcc6919081900360600190a261077a60018055565b5050565b61078661088e565b6001600160a01b03811660009081526002602052604090205460ff166107ee5760405162461bcd60e51b815260206004820152601260248201527f546f6b656e206e6f7420616363657074656400000000000000000000000000006044820152606401610217565b6001600160a01b038116600081815260026020526040808220805460ff19169055517f4c910b69fe65a61f7531b9c5042b2329ca7179c77290aa7e2eb3afa3c8511fd39190a250565b61083f61088e565b6001600160a01b038116610882576040517f1e4fbdf700000000000000000000000000000000000000000000000000000000815260006004820152602401610217565b61088b816109e4565b50565b6000546001600160a01b03163314610527576040517f118cdaa7000000000000000000000000000000000000000000000000000000008152336004820152602401610217565b600260015403610910576040517f3ee5aeb500000000000000000000000000000000000000000000000000000000815260040160405180910390fd5b6002600155565b6001600160a01b03821660009081526002602052604090205460ff1661097f5760405162461bcd60e51b815260206004820152601360248201527f546f6b656e206e6f7420737570706f72746564000000000000000000000000006044820152606401610217565b600081116109cf5760405162461bcd60e51b815260206004820152600e60248201527f496e76616c696420616d6f756e740000000000000000000000000000000000006044820152606401610217565b61077a6001600160a01b038316333084610aba565b600080546001600160a01b0383811673ffffffffffffffffffffffffffffffffffffffff19831681178455604051919092169283917f8be0079c531659141344cd1fd0a4f28419497f9722a3daafe3b4186f6b6457e09190a35050565b6040516001600160a01b03838116602483015260448201839052610ab591859182169063a9059cbb906064015b604051602081830303815290604052915060e01b6020820180517bffffffffffffffffffffffffffffffffffffffffffffffffffffffff8381831617835250505050610af9565b505050565b6040516001600160a01b038481166024830152838116604483015260648201839052610af39186918216906323b872dd90608401610a6e565b50505050565b600080602060008451602086016000885af180610b1c576040513d6000823e3d81fd5b50506000513d91508115610b34578060011415610b41565b6001600160a01b0384163b155b15610af3576040517f5274afe70000000000000000000000000000000000000000000000000000000081526001600160a01b0385166004820152602401610217565b80356001600160a01b0381168114610b9a57600080fd5b919050565b600060208284031215610bb157600080fd5b610bba82610b83565b9392505050565b60008083601f840112610bd357600080fd5b50813567ffffffffffffffff811115610beb57600080fd5b602083019150836020828501011115610c0357600080fd5b9250929050565b600080600080600080600060a0888a031215610c2557600080fd5b873567ffffffffffffffff811115610c3c57600080fd5b610c488a828b01610bc1565b90985096505060208801359450604088013560048110610c6757600080fd5b9350610c7560608901610b83565b9250608088013567ffffffffffffffff811115610c9157600080fd5b610c9d8a828b01610bc1565b989b979a50959850939692959293505050565b600060208284031215610cc257600080fd5b5035919050565b6000815180845260005b81811015610cef57602081850181015186830182015201610cd3565b506000602082860101526020601f19601f83011685010191505092915050565b634e487b7160e01b600052602160045260246000fd5b60048110610d4357634e487b7160e01b600052602160045260246000fd5b9052565b6001600160a01b038916815261010060208201526000610d6b61010083018a610cc9565b886040840152610d7e6060840189610d25565b6001600160a01b03871660808401528560a084015284151560c084015282810360e0840152610dad8185610cc9565b9b9a5050505050505050505050565b60008060408385031215610dcf57600080fd5b610dd883610b83565b946020939093013593505050565b634e487b7160e01b600052604160045260246000fd5b600181811c90821680610e1057607f821691505b602082108103610e3057634e487b7160e01b600052602260045260246000fd5b50919050565b601f821115610ab557806000526020600020601f840160051c81016020851015610e5d5750805b601f840160051c820191505b81811015610e7d5760008155600101610e69565b5050505050565b815167ffffffffffffffff811115610e9e57610e9e610de6565b610eb281610eac8454610dfc565b84610e36565b6020601f821160018114610ee65760008315610ece5750848201515b600019600385901b1c1916600184901b178455610e7d565b600084815260208120601f198516915b82811015610f165787850151825560209485019460019092019101610ef6565b5084821015610f345786840151600019600387901b60f8161c191681555b50505050600190811b01905550565b81835281816020850137506000828201602090810191909152601f909101601f19169091010190565b60c081526000610f8060c083018a8c610f43565b886020840152610f936040840189610d25565b6001600160a01b038716606084015285608084015282810360a0840152610dad818587610f4356fea26469706673582212209d9342eb5dd1d1993b00c1416f55dd21e84f46c29bba675d1e929ab3b3929acc64736f6c634300081c0033",
  "linkReferences": {},
  "deployedLinkReferences": {}
}