{
  "_format": "hh-sol-artifact-1",
  "contractName": "ChainPay_Airtime",
  "sourceName": "evm-contracts/contracts/chainpay_airtime.sol",
  "abi": [
    {
      "inputs": [
        {
          "internalType": "address",
          "name": "_usdcToken",
          "type": "address"
        }
      ],
      "stateMutability": "nonpayable",
      "type": "constructor"
    },
    {
      "inputs": [
        {
          "internalType": "address",
          "name": "owner",
          "type": "address"
        }
      ],
      "name": "OwnableInvalidOwner",
      "type": "error"
    },
    {
      "inputs": [
        {
          "internalType": "address",
          "name": "account",
          "type": "address"
        }
      ],
      "name": "OwnableUnauthorizedAccount",
      "type": "error"
    },
    {
      "anonymous": false,
      "inputs": [
        {
          "indexed": true,
          "internalType": "address",
          "name": "user",
          "type": "address"
        },
        {
          "indexed": false,
          "internalType": "string",
          "name": "phoneNumber",
          "type": "string"
        },
        {
          "indexed": false,
          "internalType": "uint256",
          "name": "amount",
          "type": "uint256"
        },
        {
          "indexed": false,
          "internalType": "string",
          "name": "network",
          "type": "string"
        },
        {
          "indexed": false,
          "internalType": "address",
          "name": "token",
          "type": "address"
        },
        {
          "indexed": false,
          "internalType": "uint256",
          "name": "timestamp",
          "type": "uint256"
        }
      ],
      "name": "AirtimePurchase",
      "type": "event"
    },
    {
      "anonymous": false,
      "inputs": [
        {
          "indexed": true,
          "internalType": "address",
          "name": "previousOwner",
          "type": "address"
        },
        {
          "indexed": true,
          "internalType": "address",
          "name": "newOwner",
          "type": "address"
        }
      ],
      "name": "OwnershipTransferred",
      "type": "event"
    },
    {
      "anonymous": false,
      "inputs": [
        {
          "indexed": true,
          "internalType": "address",
          "name": "token",
          "type": "address"
        }
      ],
      "name": "TokenAdded",
      "type": "event"
    },
    {
      "anonymous": false,
      "inputs": [
        {
          "indexed": true,
          "internalType": "address",
          "name": "token",
          "type": "address"
        }
      ],
      "name": "TokenRemoved",
      "type": "event"
    },
    {
      "anonymous": false,
      "inputs": [
        {
          "indexed": true,
          "internalType": "address",
          "name": "admin",
          "type": "address"
        },
        {
          "indexed": false,
          "internalType": "address",
          "name": "token",
          "type": "address"
        },
        {
          "indexed": false,
          "internalType": "uint256",
          "name": "amount",
          "type": "uint256"
        },
        {
          "indexed": false,
          "internalType": "uint256",
          "name": "timestamp",
          "type": "uint256"
        }
      ],
      "name": "Withdrawal",
      "type": "event"
    },
    {
      "inputs": [
        {
          "internalType": "address",
          "name": "",
          "type": "address"
        }
      ],
      "name": "acceptedTokens",
      "outputs": [
        {
          "internalType": "bool",
          "name": "",
          "type": "bool"
        }
      ],
      "stateMutability": "view",
      "type": "function"
    },
    {
      "inputs": [
        {
          "internalType": "address",
          "name": "token",
          "type": "address"
        }
      ],
      "name": "addAcceptedToken",
      "outputs": [],
      "stateMutability": "nonpayable",
      "type": "function"
    },
    {
      "inputs": [
        {
          "internalType": "string",
          "name": "phoneNumber",
          "type": "string"
        },
        {
          "internalType": "uint256",
          "name": "amount",
          "type": "uint256"
        },
        {
          "internalType": "string",
          "name": "network",
          "type": "string"
        },
        {
          "internalType": "address",
          "name": "token",
          "type": "address"
        }
      ],
      "name": "buyAirtime",
      "outputs": [],
      "stateMutability": "nonpayable",
      "type": "function"
    },
    {
      "inputs": [],
      "name": "owner",
      "outputs": [
        {
          "internalType": "address",
          "name": "",
          "type": "address"
        }
      ],
      "stateMutability": "view",
      "type": "function"
    },
    {
      "inputs": [
        {
          "internalType": "address",
          "name": "token",
          "type": "address"
        }
      ],
      "name": "removeAcceptedToken",
      "outputs": [],
      "stateMutability": "nonpayable",
      "type": "function"
    },
    {
      "inputs": [],
      "name": "renounceOwnership",
      "outputs": [],
      "stateMutability": "nonpayable",
      "type": "function"
    },
    {
      "inputs": [],
      "name": "transactionCounter",
      "outputs": [
        {
          "internalType": "uint256",
          "name": "",
          "type": "uint256"
        }
      ],
      "stateMutability": "view",
      "type": "function"
    },
    {
      "inputs": [
        {
          "internalType": "uint256",
          "name": "",
          "type": "uint256"
        }
      ],
      "name": "transactions",
      "outputs": [
        {
          "internalType": "address",
          "name": "user",
          "type": "address"
        },
        {
          "internalType": "string",
          "name": "phoneNumber",
          "type": "string"
        },
        {
          "internalType": "uint256",
          "name": "amount",
          "type": "uint256"
        },
        {
          "internalType": "string",
          "name": "serviceType",
          "type": "string"
        },
        {
          "internalType": "string",
          "name": "network",
          "type": "string"
        },
        {
          "internalType": "string",
          "name": "dataPlan",
          "type": "string"
        },
        {
          "internalType": "string",
          "name": "billType",
          "type": "string"
        },
        {
          "internalType": "uint256",
          "name": "timestamp",
          "type": "uint256"
        },
        {
          "internalType": "bool",
          "name": "completed",
          "type": "bool"
        },
        {
          "internalType": "address",
          "name": "token",
          "type": "address"
        }
      ],
      "stateMutability": "view",
      "type": "function"
    },
    {
      "inputs": [
        {
          "internalType": "address",
          "name": "newOwner",
          "type": "address"
        }
      ],
      "name": "transferOwnership",
      "outputs": [],
      "stateMutability": "nonpayable",
      "type": "function"
    },
    {
      "inputs": [
        {
          "internalType": "address",
          "name": "token",
          "type": "address"
        },
        {
          "internalType": "uint256",
          "name": "amount",
          "type": "uint256"
        }
      ],
      "name": "withdrawFunds",
      "outputs": [],
      "stateMutability": "nonpayable",
      "type": "function"
    }
  ],
  "bytecode": "0x608060405234801561001057600080fd5b50604051611efd380380611efd83398181016040528101906100329190610239565b33600073ffffffffffffffffffffffffffffffffffffffff168173ffffffffffffffffffffffffffffffffffffffff16036100a55760006040517f1e4fbdf700000000000000000000000000000000000000000000000000000000815260040161009c9190610275565b60405180910390fd5b6100b48161011260201b60201c565b5060018060008373ffffffffffffffffffffffffffffffffffffffff1673ffffffffffffffffffffffffffffffffffffffff16815260200190815260200160002060006101000a81548160ff02191690831515021790555050610290565b60008060009054906101000a900473ffffffffffffffffffffffffffffffffffffffff169050816000806101000a81548173ffffffffffffffffffffffffffffffffffffffff021916908373ffffffffffffffffffffffffffffffffffffffff1602179055508173ffffffffffffffffffffffffffffffffffffffff168173ffffffffffffffffffffffffffffffffffffffff167f8be0079c531659141344cd1fd0a4f28419497f9722a3daafe3b4186f6b6457e060405160405180910390a35050565b600080fd5b600073ffffffffffffffffffffffffffffffffffffffff82169050919050565b6000610206826101db565b9050919050565b610216816101fb565b811461022157600080fd5b50565b6000815190506102338161020d565b92915050565b60006020828403121561024f5761024e6101d6565b5b600061025d84828501610224565b91505092915050565b61026f816101fb565b82525050565b600060208201905061028a6000830184610266565b92915050565b611c5e8061029f6000396000f3fe608060405234801561001057600080fd5b506004361061009e5760003560e01c80639ace38c2116100665780639ace38c214610135578063b663b8a01461016e578063c10753291461018a578063d8134a23146101a6578063f2fde38b146101c25761009e565b806314e887e8146100a35780633eee83f1146100c1578063715018a6146100dd57806382dc4a05146100e75780638da5cb5b14610117575b600080fd5b6100ab6101de565b6040516100b89190611061565b60405180910390f35b6100db60048036038101906100d691906110e4565b6101e4565b005b6100e561034f565b005b61010160048036038101906100fc91906110e4565b610363565b60405161010e919061112c565b60405180910390f35b61011f610383565b60405161012c9190611156565b60405180910390f35b61014f600480360381019061014a919061119d565b6103ac565b6040516101659a9998979695949392919061125a565b60405180910390f35b6101886004803603810190610183919061137e565b6106f5565b005b6101a4600480360381019061019f9190611425565b610a0d565b005b6101c060048036038101906101bb91906110e4565b610bb4565b005b6101dc60048036038101906101d791906110e4565b610cdd565b005b60035481565b6101ec610d63565b600073ffffffffffffffffffffffffffffffffffffffff168173ffffffffffffffffffffffffffffffffffffffff16141580156102735750600160008273ffffffffffffffffffffffffffffffffffffffff1673ffffffffffffffffffffffffffffffffffffffff16815260200190815260200160002060009054906101000a900460ff16155b6102b2576040517f08c379a00000000000000000000000000000000000000000000000000000000081526004016102a9906114d7565b60405180910390fd5b60018060008373ffffffffffffffffffffffffffffffffffffffff1673ffffffffffffffffffffffffffffffffffffffff16815260200190815260200160002060006101000a81548160ff0219169083151502179055508073ffffffffffffffffffffffffffffffffffffffff167f784c8f4dbf0ffedd6e72c76501c545a70f8b203b30a26ce542bf92ba87c248a460405160405180910390a250565b610357610d63565b6103616000610dea565b565b60016020528060005260406000206000915054906101000a900460ff1681565b60008060009054906101000a900473ffffffffffffffffffffffffffffffffffffffff16905090565b60026020528060005260406000206000915090508060000160009054906101000a900473ffffffffffffffffffffffffffffffffffffffff16908060010180546103f590611526565b80601f016020809104026020016040519081016040528092919081815260200182805461042190611526565b801561046e5780601f106104435761010080835404028352916020019161046e565b820191906000526020600020905b81548152906001019060200180831161045157829003601f168201915b50505050509080600201549080600301805461048990611526565b80601f01602080910402602001604051908101604052809291908181526020018280546104b590611526565b80156105025780601f106104d757610100808354040283529160200191610502565b820191906000526020600020905b8154815290600101906020018083116104e557829003601f168201915b50505050509080600401805461051790611526565b80601f016020809104026020016040519081016040528092919081815260200182805461054390611526565b80156105905780601f1061056557610100808354040283529160200191610590565b820191906000526020600020905b81548152906001019060200180831161057357829003601f168201915b5050505050908060050180546105a590611526565b80601f01602080910402602001604051908101604052809291908181526020018280546105d190611526565b801561061e5780601f106105f35761010080835404028352916020019161061e565b820191906000526020600020905b81548152906001019060200180831161060157829003601f168201915b50505050509080600601805461063390611526565b80601f016020809104026020016040519081016040528092919081815260200182805461065f90611526565b80156106ac5780601f10610681576101008083540402835291602001916106ac565b820191906000526020600020905b81548152906001019060200180831161068f57829003601f168201915b5050505050908060070154908060080160009054906101000a900460ff16908060080160019054906101000a900473ffffffffffffffffffffffffffffffffffffffff1690508a565b6106ff8185610eae565b6040518061014001604052803373ffffffffffffffffffffffffffffffffffffffff16815260200187878080601f016020809104026020016040519081016040528093929190818152602001838380828437600081840152601f19601f8201169050808301925050505050505081526020018581526020016040518060400160405280600781526020017f61697274696d6500000000000000000000000000000000000000000000000000815250815260200184848080601f016020809104026020016040519081016040528093929190818152602001838380828437600081840152601f19601f8201169050808301925050505050505081526020016040518060200160405280600081525081526020016040518060200160405280600081525081526020014281526020016000151581526020018273ffffffffffffffffffffffffffffffffffffffff168152506002600060036000815461086290611586565b919050819055815260200190815260200160002060008201518160000160006101000a81548173ffffffffffffffffffffffffffffffffffffffff021916908373ffffffffffffffffffffffffffffffffffffffff16021790555060208201518160010190816108d291906117a9565b506040820151816002015560608201518160030190816108f291906117a9565b50608082015181600401908161090891906117a9565b5060a082015181600501908161091e91906117a9565b5060c082015181600601908161093491906117a9565b5060e082015181600701556101008201518160080160006101000a81548160ff0219169083151502179055506101208201518160080160016101000a81548173ffffffffffffffffffffffffffffffffffffffff021916908373ffffffffffffffffffffffffffffffffffffffff1602179055509050503373ffffffffffffffffffffffffffffffffffffffff167f3fbf976149ba1c4ec0505321604be15f5c81ce29256fef5e89e51eb7c751a6aa878787878787426040516109fd97969594939291906118b7565b60405180910390a2505050505050565b610a15610d63565b600160008373ffffffffffffffffffffffffffffffffffffffff1673ffffffffffffffffffffffffffffffffffffffff16815260200190815260200160002060009054906101000a900460ff16610aa1576040517f08c379a0000000000000000000000000000000000000000000000000000000008152600401610a9890611968565b60405180910390fd5b8173ffffffffffffffffffffffffffffffffffffffff1663a9059cbb33836040518363ffffffff1660e01b8152600401610adc929190611988565b6020604051808303816000875af1158015610afb573d6000803e3d6000fd5b505050506040513d601f19601f82011682018060405250810190610b1f91906119dd565b610b5e576040517f08c379a0000000000000000000000000000000000000000000000000000000008152600401610b5590611a56565b60405180910390fd5b3373ffffffffffffffffffffffffffffffffffffffff167fc2b4a290c20fb28939d29f102514fbffd2b73c059ffba8b78250c94161d5fcc6838342604051610ba893929190611a76565b60405180910390a25050565b610bbc610d63565b600160008273ffffffffffffffffffffffffffffffffffffffff1673ffffffffffffffffffffffffffffffffffffffff16815260200190815260200160002060009054906101000a900460ff16610c48576040517f08c379a0000000000000000000000000000000000000000000000000000000008152600401610c3f90611af9565b60405180910390fd5b600160008273ffffffffffffffffffffffffffffffffffffffff1673ffffffffffffffffffffffffffffffffffffffff16815260200190815260200160002060006101000a81549060ff02191690558073ffffffffffffffffffffffffffffffffffffffff167f4c910b69fe65a61f7531b9c5042b2329ca7179c77290aa7e2eb3afa3c8511fd360405160405180910390a250565b610ce5610d63565b600073ffffffffffffffffffffffffffffffffffffffff168173ffffffffffffffffffffffffffffffffffffffff1603610d575760006040517f1e4fbdf7000000000000000000000000000000000000000000000000000000008152600401610d4e9190611156565b60405180910390fd5b610d6081610dea565b50565b610d6b611040565b73ffffffffffffffffffffffffffffffffffffffff16610d89610383565b73ffffffffffffffffffffffffffffffffffffffff1614610de857610dac611040565b6040517f118cdaa7000000000000000000000000000000000000000000000000000000008152600401610ddf9190611156565b60405180910390fd5b565b60008060009054906101000a900473ffffffffffffffffffffffffffffffffffffffff169050816000806101000a81548173ffffffffffffffffffffffffffffffffffffffff021916908373ffffffffffffffffffffffffffffffffffffffff1602179055508173ffffffffffffffffffffffffffffffffffffffff168173ffffffffffffffffffffffffffffffffffffffff167f8be0079c531659141344cd1fd0a4f28419497f9722a3daafe3b4186f6b6457e060405160405180910390a35050565b600160008373ffffffffffffffffffffffffffffffffffffffff1673ffffffffffffffffffffffffffffffffffffffff16815260200190815260200160002060009054906101000a900460ff16610f3a576040517f08c379a0000000000000000000000000000000000000000000000000000000008152600401610f3190611968565b60405180910390fd5b60008111610f7d576040517f08c379a0000000000000000000000000000000000000000000000000000000008152600401610f7490611b65565b60405180910390fd5b8173ffffffffffffffffffffffffffffffffffffffff166323b872dd3330846040518463ffffffff1660e01b8152600401610fba93929190611b85565b6020604051808303816000875af1158015610fd9573d6000803e3d6000fd5b505050506040513d601f19601f82011682018060405250810190610ffd91906119dd565b61103c576040517f08c379a000000000000000000000000000000000000000000000000000000000815260040161103390611c08565b60405180910390fd5b5050565b600033905090565b6000819050919050565b61105b81611048565b82525050565b60006020820190506110766000830184611052565b92915050565b600080fd5b600080fd5b600073ffffffffffffffffffffffffffffffffffffffff82169050919050565b60006110b182611086565b9050919050565b6110c1816110a6565b81146110cc57600080fd5b50565b6000813590506110de816110b8565b92915050565b6000602082840312156110fa576110f961107c565b5b6000611108848285016110cf565b91505092915050565b60008115159050919050565b61112681611111565b82525050565b6000602082019050611141600083018461111d565b92915050565b611150816110a6565b82525050565b600060208201905061116b6000830184611147565b92915050565b61117a81611048565b811461118557600080fd5b50565b60008135905061119781611171565b92915050565b6000602082840312156111b3576111b261107c565b5b60006111c184828501611188565b91505092915050565b600081519050919050565b600082825260208201905092915050565b60005b838110156112045780820151818401526020810190506111e9565b60008484015250505050565b6000601f19601f8301169050919050565b600061122c826111ca565b61123681856111d5565b93506112468185602086016111e6565b61124f81611210565b840191505092915050565b600061014082019050611270600083018d611147565b8181036020830152611282818c611221565b9050611291604083018b611052565b81810360608301526112a3818a611221565b905081810360808301526112b78189611221565b905081810360a08301526112cb8188611221565b905081810360c08301526112df8187611221565b90506112ee60e0830186611052565b6112fc61010083018561111d565b61130a610120830184611147565b9b9a5050505050505050505050565b600080fd5b600080fd5b600080fd5b60008083601f84011261133e5761133d611319565b5b8235905067ffffffffffffffff81111561135b5761135a61131e565b5b60208301915083600182028301111561137757611376611323565b5b9250929050565b6000806000806000806080878903121561139b5761139a61107c565b5b600087013567ffffffffffffffff8111156113b9576113b8611081565b5b6113c589828a01611328565b965096505060206113d889828a01611188565b945050604087013567ffffffffffffffff8111156113f9576113f8611081565b5b61140589828a01611328565b9350935050606061141889828a016110cf565b9150509295509295509295565b6000806040838503121561143c5761143b61107c565b5b600061144a858286016110cf565b925050602061145b85828601611188565b9150509250929050565b7f496e76616c6964206f7220616c726561647920616363657074656420746f6b6560008201527f6e00000000000000000000000000000000000000000000000000000000000000602082015250565b60006114c16021836111d5565b91506114cc82611465565b604082019050919050565b600060208201905081810360008301526114f0816114b4565b9050919050565b7f4e487b7100000000000000000000000000000000000000000000000000000000600052602260045260246000fd5b6000600282049050600182168061153e57607f821691505b602082108103611551576115506114f7565b5b50919050565b7f4e487b7100000000000000000000000000000000000000000000000000000000600052601160045260246000fd5b600061159182611048565b91507fffffffffffffffffffffffffffffffffffffffffffffffffffffffffffffffff82036115c3576115c2611557565b5b600182019050919050565b7f4e487b7100000000000000000000000000000000000000000000000000000000600052604160045260246000fd5b60008190508160005260206000209050919050565b60006020601f8301049050919050565b600082821b905092915050565b60006008830261165f7fffffffffffffffffffffffffffffffffffffffffffffffffffffffffffffffff82611622565b6116698683611622565b95508019841693508086168417925050509392505050565b6000819050919050565b60006116a66116a161169c84611048565b611681565b611048565b9050919050565b6000819050919050565b6116c08361168b565b6116d46116cc826116ad565b84845461162f565b825550505050565b600090565b6116e96116dc565b6116f48184846116b7565b505050565b5b818110156117185761170d6000826116e1565b6001810190506116fa565b5050565b601f82111561175d5761172e816115fd565b61173784611612565b81016020851015611746578190505b61175a61175285611612565b8301826116f9565b50505b505050565b600082821c905092915050565b600061178060001984600802611762565b1980831691505092915050565b6000611799838361176f565b9150826002028217905092915050565b6117b2826111ca565b67ffffffffffffffff8111156117cb576117ca6115ce565b5b6117d58254611526565b6117e082828561171c565b600060209050601f8311600181146118135760008415611801578287015190505b61180b858261178d565b865550611873565b601f198416611821866115fd565b60005b8281101561184957848901518255600182019150602085019450602081019050611824565b868310156118665784890151611862601f89168261176f565b8355505b6001600288020188555050505b505050505050565b82818337600083830152505050565b600061189683856111d5565b93506118a383858461187b565b6118ac83611210565b840190509392505050565b600060a08201905081810360008301526118d281898b61188a565b90506118e16020830188611052565b81810360408301526118f481868861188a565b90506119036060830185611147565b6119106080830184611052565b98975050505050505050565b7f546f6b656e206e6f7420737570706f7274656400000000000000000000000000600082015250565b60006119526013836111d5565b915061195d8261191c565b602082019050919050565b6000602082019050818103600083015261198181611945565b9050919050565b600060408201905061199d6000830185611147565b6119aa6020830184611052565b9392505050565b6119ba81611111565b81146119c557600080fd5b50565b6000815190506119d7816119b1565b92915050565b6000602082840312156119f3576119f261107c565b5b6000611a01848285016119c8565b91505092915050565b7f5769746864726177616c206661696c6564000000000000000000000000000000600082015250565b6000611a406011836111d5565b9150611a4b82611a0a565b602082019050919050565b60006020820190508181036000830152611a6f81611a33565b9050919050565b6000606082019050611a8b6000830186611147565b611a986020830185611052565b611aa56040830184611052565b949350505050565b7f546f6b656e206e6f742061636365707465640000000000000000000000000000600082015250565b6000611ae36012836111d5565b9150611aee82611aad565b602082019050919050565b60006020820190508181036000830152611b1281611ad6565b9050919050565b7f496e76616c696420616d6f756e74000000000000000000000000000000000000600082015250565b6000611b4f600e836111d5565b9150611b5a82611b19565b602082019050919050565b60006020820190508181036000830152611b7e81611b42565b9050919050565b6000606082019050611b9a6000830186611147565b611ba76020830185611147565b611bb46040830184611052565b949350505050565b7f5061796d656e74206661696c6564000000000000000000000000000000000000600082015250565b6000611bf2600e836111d5565b9150611bfd82611bbc565b602082019050919050565b60006020820190508181036000830152611c2181611be5565b905091905056fea2646970667358221220d680468d5edee3989780e8c3173f6d1157d4ddae04c26d0ebe5491ef8b35508b64736f6c634300081c0033",
  "linkReferences": {},
  "deployedLinkReferences": {}
}