{
  "_format": "hh-sol-artifact-1",
  "contractName": "ChainPay",
  "sourceName": "evm-contracts/contracts/chainpay.sol",
  "abi": [
    {
      "inputs": [
        {
          "internalType": "address",
          "name": "_usdcToken",
          "type": "address"
        }
      ],
      "stateMutability": "nonpayable",
      "type": "constructor"
    },
    {
      "inputs": [
        {
          "internalType": "address",
          "name": "owner",
          "type": "address"
        }
      ],
      "name": "OwnableInvalidOwner",
      "type": "error"
    },
    {
      "inputs": [
        {
          "internalType": "address",
          "name": "account",
          "type": "address"
        }
      ],
      "name": "OwnableUnauthorizedAccount",
      "type": "error"
    },
    {
      "anonymous": false,
      "inputs": [
        {
          "indexed": true,
          "internalType": "address",
          "name": "user",
          "type": "address"
        },
        {
          "indexed": false,
          "internalType": "string",
          "name": "phoneNumber",
          "type": "string"
        },
        {
          "indexed": false,
          "internalType": "uint256",
          "name": "amount",
          "type": "uint256"
        },
        {
          "indexed": false,
          "internalType": "string",
          "name": "network",
          "type": "string"
        },
        {
          "indexed": false,
          "internalType": "address",
          "name": "token",
          "type": "address"
        },
        {
          "indexed": false,
          "internalType": "uint256",
          "name": "timestamp",
          "type": "uint256"
        }
      ],
      "name": "AirtimePurchase",
      "type": "event"
    },
    {
      "anonymous": false,
      "inputs": [
        {
          "indexed": true,
          "internalType": "address",
          "name": "user",
          "type": "address"
        },
        {
          "indexed": false,
          "internalType": "string",
          "name": "billType",
          "type": "string"
        },
        {
          "indexed": false,
          "internalType": "uint256",
          "name": "amount",
          "type": "uint256"
        },
        {
          "indexed": false,
          "internalType": "string",
          "name": "accountNumber",
          "type": "string"
        },
        {
          "indexed": false,
          "internalType": "address",
          "name": "token",
          "type": "address"
        },
        {
          "indexed": false,
          "internalType": "uint256",
          "name": "timestamp",
          "type": "uint256"
        }
      ],
      "name": "BillPayment",
      "type": "event"
    },
    {
      "anonymous": false,
      "inputs": [
        {
          "indexed": true,
          "internalType": "address",
          "name": "user",
          "type": "address"
        },
        {
          "indexed": false,
          "internalType": "string",
          "name": "phoneNumber",
          "type": "string"
        },
        {
          "indexed": false,
          "internalType": "uint256",
          "name": "amount",
          "type": "uint256"
        },
        {
          "indexed": false,
          "internalType": "string",
          "name": "network",
          "type": "string"
        },
        {
          "indexed": false,
          "internalType": "string",
          "name": "dataPlan",
          "type": "string"
        },
        {
          "indexed": false,
          "internalType": "address",
          "name": "token",
          "type": "address"
        },
        {
          "indexed": false,
          "internalType": "uint256",
          "name": "timestamp",
          "type": "uint256"
        }
      ],
      "name": "DataPurchase",
      "type": "event"
    },
    {
      "anonymous": false,
      "inputs": [
        {
          "indexed": true,
          "internalType": "address",
          "name": "previousOwner",
          "type": "address"
        },
        {
          "indexed": true,
          "internalType": "address",
          "name": "newOwner",
          "type": "address"
        }
      ],
      "name": "OwnershipTransferred",
      "type": "event"
    },
    {
      "anonymous": false,
      "inputs": [
        {
          "indexed": true,
          "internalType": "address",
          "name": "token",
          "type": "address"
        }
      ],
      "name": "TokenAdded",
      "type": "event"
    },
    {
      "anonymous": false,
      "inputs": [
        {
          "indexed": true,
          "internalType": "address",
          "name": "token",
          "type": "address"
        }
      ],
      "name": "TokenRemoved",
      "type": "event"
    },
    {
      "anonymous": false,
      "inputs": [
        {
          "indexed": true,
          "internalType": "address",
          "name": "admin",
          "type": "address"
        },
        {
          "indexed": false,
          "internalType": "address",
          "name": "token",
          "type": "address"
        },
        {
          "indexed": false,
          "internalType": "uint256",
          "name": "amount",
          "type": "uint256"
        },
        {
          "indexed": false,
          "internalType": "uint256",
          "name": "timestamp",
          "type": "uint256"
        }
      ],
      "name": "Withdrawal",
      "type": "event"
    },
    {
      "inputs": [
        {
          "internalType": "address",
          "name": "",
          "type": "address"
        }
      ],
      "name": "acceptedTokens",
      "outputs": [
        {
          "internalType": "bool",
          "name": "",
          "type": "bool"
        }
      ],
      "stateMutability": "view",
      "type": "function"
    },
    {
      "inputs": [
        {
          "internalType": "address",
          "name": "token",
          "type": "address"
        }
      ],
      "name": "addAcceptedToken",
      "outputs": [],
      "stateMutability": "nonpayable",
      "type": "function"
    },
    {
      "inputs": [
        {
          "internalType": "string",
          "name": "phoneNumber",
          "type": "string"
        },
        {
          "internalType": "uint256",
          "name": "amount",
          "type": "uint256"
        },
        {
          "internalType": "string",
          "name": "network",
          "type": "string"
        },
        {
          "internalType": "address",
          "name": "token",
          "type": "address"
        }
      ],
      "name": "buyAirtime",
      "outputs": [],
      "stateMutability": "nonpayable",
      "type": "function"
    },
    {
      "inputs": [
        {
          "internalType": "string",
          "name": "phoneNumber",
          "type": "string"
        },
        {
          "internalType": "uint256",
          "name": "amount",
          "type": "uint256"
        },
        {
          "internalType": "string",
          "name": "network",
          "type": "string"
        },
        {
          "internalType": "string",
          "name": "dataPlan",
          "type": "string"
        },
        {
          "internalType": "address",
          "name": "token",
          "type": "address"
        }
      ],
      "name": "buyData",
      "outputs": [],
      "stateMutability": "nonpayable",
      "type": "function"
    },
    {
      "inputs": [],
      "name": "owner",
      "outputs": [
        {
          "internalType": "address",
          "name": "",
          "type": "address"
        }
      ],
      "stateMutability": "view",
      "type": "function"
    },
    {
      "inputs": [
        {
          "internalType": "string",
          "name": "billType",
          "type": "string"
        },
        {
          "internalType": "uint256",
          "name": "amount",
          "type": "uint256"
        },
        {
          "internalType": "string",
          "name": "accountNumber",
          "type": "string"
        },
        {
          "internalType": "address",
          "name": "token",
          "type": "address"
        }
      ],
      "name": "payBill",
      "outputs": [],
      "stateMutability": "nonpayable",
      "type": "function"
    },
    {
      "inputs": [
        {
          "internalType": "address",
          "name": "token",
          "type": "address"
        }
      ],
      "name": "removeAcceptedToken",
      "outputs": [],
      "stateMutability": "nonpayable",
      "type": "function"
    },
    {
      "inputs": [],
      "name": "renounceOwnership",
      "outputs": [],
      "stateMutability": "nonpayable",
      "type": "function"
    },
    {
      "inputs": [],
      "name": "transactionCounter",
      "outputs": [
        {
          "internalType": "uint256",
          "name": "",
          "type": "uint256"
        }
      ],
      "stateMutability": "view",
      "type": "function"
    },
    {
      "inputs": [
        {
          "internalType": "uint256",
          "name": "",
          "type": "uint256"
        }
      ],
      "name": "transactions",
      "outputs": [
        {
          "internalType": "address",
          "name": "user",
          "type": "address"
        },
        {
          "internalType": "string",
          "name": "phoneNumber",
          "type": "string"
        },
        {
          "internalType": "uint256",
          "name": "amount",
          "type": "uint256"
        },
        {
          "internalType": "string",
          "name": "serviceType",
          "type": "string"
        },
        {
          "internalType": "string",
          "name": "network",
          "type": "string"
        },
        {
          "internalType": "string",
          "name": "dataPlan",
          "type": "string"
        },
        {
          "internalType": "string",
          "name": "billType",
          "type": "string"
        },
        {
          "internalType": "uint256",
          "name": "timestamp",
          "type": "uint256"
        },
        {
          "internalType": "bool",
          "name": "completed",
          "type": "bool"
        },
        {
          "internalType": "address",
          "name": "token",
          "type": "address"
        }
      ],
      "stateMutability": "view",
      "type": "function"
    },
    {
      "inputs": [
        {
          "internalType": "address",
          "name": "newOwner",
          "type": "address"
        }
      ],
      "name": "transferOwnership",
      "outputs": [],
      "stateMutability": "nonpayable",
      "type": "function"
    },
    {
      "inputs": [
        {
          "internalType": "address",
          "name": "token",
          "type": "address"
        },
        {
          "internalType": "uint256",
          "name": "amount",
          "type": "uint256"
        }
      ],
      "name": "withdrawFunds",
      "outputs": [],
      "stateMutability": "nonpayable",
      "type": "function"
    }
  ],
  "bytecode": "0x608060405234801561001057600080fd5b506040516126d93803806126d983398181016040528101906100329190610239565b33600073ffffffffffffffffffffffffffffffffffffffff168173ffffffffffffffffffffffffffffffffffffffff16036100a55760006040517f1e4fbdf700000000000000000000000000000000000000000000000000000000815260040161009c9190610275565b60405180910390fd5b6100b48161011260201b60201c565b5060018060008373ffffffffffffffffffffffffffffffffffffffff1673ffffffffffffffffffffffffffffffffffffffff16815260200190815260200160002060006101000a81548160ff02191690831515021790555050610290565b60008060009054906101000a900473ffffffffffffffffffffffffffffffffffffffff169050816000806101000a81548173ffffffffffffffffffffffffffffffffffffffff021916908373ffffffffffffffffffffffffffffffffffffffff1602179055508173ffffffffffffffffffffffffffffffffffffffff168173ffffffffffffffffffffffffffffffffffffffff167f8be0079c531659141344cd1fd0a4f28419497f9722a3daafe3b4186f6b6457e060405160405180910390a35050565b600080fd5b600073ffffffffffffffffffffffffffffffffffffffff82169050919050565b6000610206826101db565b9050919050565b610216816101fb565b811461022157600080fd5b50565b6000815190506102338161020d565b92915050565b60006020828403121561024f5761024e6101d6565b5b600061025d84828501610224565b91505092915050565b61026f816101fb565b82525050565b600060208201905061028a6000830184610266565b92915050565b61243a8061029f6000396000f3fe608060405234801561001057600080fd5b50600436106100b45760003560e01c8063b663b8a011610071578063b663b8a014610184578063c1075329146101a0578063d8134a23146101bc578063daf1c859146101d8578063daf2d90b146101f4578063f2fde38b14610210576100b4565b806314e887e8146100b95780633eee83f1146100d7578063715018a6146100f357806382dc4a05146100fd5780638da5cb5b1461012d5780639ace38c21461014b575b600080fd5b6100c161022c565b6040516100ce91906116e5565b60405180910390f35b6100f160048036038101906100ec9190611768565b610232565b005b6100fb61039d565b005b61011760048036038101906101129190611768565b6103b1565b60405161012491906117b0565b60405180910390f35b6101356103d1565b60405161014291906117da565b60405180910390f35b61016560048036038101906101609190611821565b6103fa565b60405161017b9a999897969594939291906118de565b60405180910390f35b61019e60048036038101906101999190611a02565b610743565b005b6101ba60048036038101906101b59190611aa9565b610a5b565b005b6101d660048036038101906101d19190611768565b610c02565b005b6101f260048036038101906101ed9190611ae9565b610d2b565b005b61020e60048036038101906102099190611a02565b61107e565b005b61022a60048036038101906102259190611768565b611361565b005b60035481565b61023a6113e7565b600073ffffffffffffffffffffffffffffffffffffffff168173ffffffffffffffffffffffffffffffffffffffff16141580156102c15750600160008273ffffffffffffffffffffffffffffffffffffffff1673ffffffffffffffffffffffffffffffffffffffff16815260200190815260200160002060009054906101000a900460ff16155b610300576040517f08c379a00000000000000000000000000000000000000000000000000000000081526004016102f790611c37565b60405180910390fd5b60018060008373ffffffffffffffffffffffffffffffffffffffff1673ffffffffffffffffffffffffffffffffffffffff16815260200190815260200160002060006101000a81548160ff0219169083151502179055508073ffffffffffffffffffffffffffffffffffffffff167f784c8f4dbf0ffedd6e72c76501c545a70f8b203b30a26ce542bf92ba87c248a460405160405180910390a250565b6103a56113e7565b6103af600061146e565b565b60016020528060005260406000206000915054906101000a900460ff1681565b60008060009054906101000a900473ffffffffffffffffffffffffffffffffffffffff16905090565b60026020528060005260406000206000915090508060000160009054906101000a900473ffffffffffffffffffffffffffffffffffffffff169080600101805461044390611c86565b80601f016020809104026020016040519081016040528092919081815260200182805461046f90611c86565b80156104bc5780601f10610491576101008083540402835291602001916104bc565b820191906000526020600020905b81548152906001019060200180831161049f57829003601f168201915b5050505050908060020154908060030180546104d790611c86565b80601f016020809104026020016040519081016040528092919081815260200182805461050390611c86565b80156105505780601f1061052557610100808354040283529160200191610550565b820191906000526020600020905b81548152906001019060200180831161053357829003601f168201915b50505050509080600401805461056590611c86565b80601f016020809104026020016040519081016040528092919081815260200182805461059190611c86565b80156105de5780601f106105b3576101008083540402835291602001916105de565b820191906000526020600020905b8154815290600101906020018083116105c157829003601f168201915b5050505050908060050180546105f390611c86565b80601f016020809104026020016040519081016040528092919081815260200182805461061f90611c86565b801561066c5780601f106106415761010080835404028352916020019161066c565b820191906000526020600020905b81548152906001019060200180831161064f57829003601f168201915b50505050509080600601805461068190611c86565b80601f01602080910402602001604051908101604052809291908181526020018280546106ad90611c86565b80156106fa5780601f106106cf576101008083540402835291602001916106fa565b820191906000526020600020905b8154815290600101906020018083116106dd57829003601f168201915b5050505050908060070154908060080160009054906101000a900460ff16908060080160019054906101000a900473ffffffffffffffffffffffffffffffffffffffff1690508a565b61074d8185611532565b6040518061014001604052803373ffffffffffffffffffffffffffffffffffffffff16815260200187878080601f016020809104026020016040519081016040528093929190818152602001838380828437600081840152601f19601f8201169050808301925050505050505081526020018581526020016040518060400160405280600781526020017f61697274696d6500000000000000000000000000000000000000000000000000815250815260200184848080601f016020809104026020016040519081016040528093929190818152602001838380828437600081840152601f19601f8201169050808301925050505050505081526020016040518060200160405280600081525081526020016040518060200160405280600081525081526020014281526020016000151581526020018273ffffffffffffffffffffffffffffffffffffffff16815250600260006003600081546108b090611ce6565b919050819055815260200190815260200160002060008201518160000160006101000a81548173ffffffffffffffffffffffffffffffffffffffff021916908373ffffffffffffffffffffffffffffffffffffffff16021790555060208201518160010190816109209190611f09565b506040820151816002015560608201518160030190816109409190611f09565b5060808201518160040190816109569190611f09565b5060a082015181600501908161096c9190611f09565b5060c08201518160060190816109829190611f09565b5060e082015181600701556101008201518160080160006101000a81548160ff0219169083151502179055506101208201518160080160016101000a81548173ffffffffffffffffffffffffffffffffffffffff021916908373ffffffffffffffffffffffffffffffffffffffff1602179055509050503373ffffffffffffffffffffffffffffffffffffffff167f3fbf976149ba1c4ec0505321604be15f5c81ce29256fef5e89e51eb7c751a6aa87878787878742604051610a4b9796959493929190612017565b60405180910390a2505050505050565b610a636113e7565b600160008373ffffffffffffffffffffffffffffffffffffffff1673ffffffffffffffffffffffffffffffffffffffff16815260200190815260200160002060009054906101000a900460ff16610aef576040517f08c379a0000000000000000000000000000000000000000000000000000000008152600401610ae6906120c8565b60405180910390fd5b8173ffffffffffffffffffffffffffffffffffffffff1663a9059cbb33836040518363ffffffff1660e01b8152600401610b2a9291906120e8565b6020604051808303816000875af1158015610b49573d6000803e3d6000fd5b505050506040513d601f19601f82011682018060405250810190610b6d919061213d565b610bac576040517f08c379a0000000000000000000000000000000000000000000000000000000008152600401610ba3906121b6565b60405180910390fd5b3373ffffffffffffffffffffffffffffffffffffffff167fc2b4a290c20fb28939d29f102514fbffd2b73c059ffba8b78250c94161d5fcc6838342604051610bf6939291906121d6565b60405180910390a25050565b610c0a6113e7565b600160008273ffffffffffffffffffffffffffffffffffffffff1673ffffffffffffffffffffffffffffffffffffffff16815260200190815260200160002060009054906101000a900460ff16610c96576040517f08c379a0000000000000000000000000000000000000000000000000000000008152600401610c8d90612259565b60405180910390fd5b600160008273ffffffffffffffffffffffffffffffffffffffff1673ffffffffffffffffffffffffffffffffffffffff16815260200190815260200160002060006101000a81549060ff02191690558073ffffffffffffffffffffffffffffffffffffffff167f4c910b69fe65a61f7531b9c5042b2329ca7179c77290aa7e2eb3afa3c8511fd360405160405180910390a250565b610d358187611532565b6040518061014001604052803373ffffffffffffffffffffffffffffffffffffffff16815260200189898080601f016020809104026020016040519081016040528093929190818152602001838380828437600081840152601f19601f8201169050808301925050505050505081526020018781526020016040518060400160405280600481526020017f6461746100000000000000000000000000000000000000000000000000000000815250815260200186868080601f016020809104026020016040519081016040528093929190818152602001838380828437600081840152601f19601f82011690508083019250505050505050815260200184848080601f016020809104026020016040519081016040528093929190818152602001838380828437600081840152601f19601f8201169050808301925050505050505081526020016040518060200160405280600081525081526020014281526020016000151581526020018273ffffffffffffffffffffffffffffffffffffffff1681525060026000600360008154610ecd90611ce6565b919050819055815260200190815260200160002060008201518160000160006101000a81548173ffffffffffffffffffffffffffffffffffffffff021916908373ffffffffffffffffffffffffffffffffffffffff1602179055506020820151816001019081610f3d9190611f09565b50604082015181600201556060820151816003019081610f5d9190611f09565b506080820151816004019081610f739190611f09565b5060a0820151816005019081610f899190611f09565b5060c0820151816006019081610f9f9190611f09565b5060e082015181600701556101008201518160080160006101000a81548160ff0219169083151502179055506101208201518160080160016101000a81548173ffffffffffffffffffffffffffffffffffffffff021916908373ffffffffffffffffffffffffffffffffffffffff1602179055509050503373ffffffffffffffffffffffffffffffffffffffff167f4bfe57ae3ef90d84db8eaca18befabcef1f936f0efb9eaf2c05cc16fcdacb6a089898989898989894260405161106c99989796959493929190612279565b60405180910390a25050505050505050565b6110888185611532565b6040518061014001604052803373ffffffffffffffffffffffffffffffffffffffff1681526020016040518060200160405280600081525081526020018581526020016040518060400160405280600481526020017f62696c6c00000000000000000000000000000000000000000000000000000000815250815260200160405180602001604052806000815250815260200160405180602001604052806000815250815260200187878080601f016020809104026020016040519081016040528093929190818152602001838380828437600081840152601f19601f8201169050808301925050505050505081526020014281526020016000151581526020018273ffffffffffffffffffffffffffffffffffffffff16815250600260006003600081546111b690611ce6565b919050819055815260200190815260200160002060008201518160000160006101000a81548173ffffffffffffffffffffffffffffffffffffffff021916908373ffffffffffffffffffffffffffffffffffffffff16021790555060208201518160010190816112269190611f09565b506040820151816002015560608201518160030190816112469190611f09565b50608082015181600401908161125c9190611f09565b5060a08201518160050190816112729190611f09565b5060c08201518160060190816112889190611f09565b5060e082015181600701556101008201518160080160006101000a81548160ff0219169083151502179055506101208201518160080160016101000a81548173ffffffffffffffffffffffffffffffffffffffff021916908373ffffffffffffffffffffffffffffffffffffffff1602179055509050503373ffffffffffffffffffffffffffffffffffffffff167fd7b439b6fd920db6faf913f7e27cf8de773ee0f5d96c69991e26bca953c161f6878787878787426040516113519796959493929190612017565b60405180910390a2505050505050565b6113696113e7565b600073ffffffffffffffffffffffffffffffffffffffff168173ffffffffffffffffffffffffffffffffffffffff16036113db5760006040517f1e4fbdf70000000000000000000000000000000000000000000000000000000081526004016113d291906117da565b60405180910390fd5b6113e48161146e565b50565b6113ef6116c4565b73ffffffffffffffffffffffffffffffffffffffff1661140d6103d1565b73ffffffffffffffffffffffffffffffffffffffff161461146c576114306116c4565b6040517f118cdaa700000000000000000000000000000000000000000000000000000000815260040161146391906117da565b60405180910390fd5b565b60008060009054906101000a900473ffffffffffffffffffffffffffffffffffffffff169050816000806101000a81548173ffffffffffffffffffffffffffffffffffffffff021916908373ffffffffffffffffffffffffffffffffffffffff1602179055508173ffffffffffffffffffffffffffffffffffffffff168173ffffffffffffffffffffffffffffffffffffffff167f8be0079c531659141344cd1fd0a4f28419497f9722a3daafe3b4186f6b6457e060405160405180910390a35050565b600160008373ffffffffffffffffffffffffffffffffffffffff1673ffffffffffffffffffffffffffffffffffffffff16815260200190815260200160002060009054906101000a900460ff166115be576040517f08c379a00000000000000000000000000000000000000000000000000000000081526004016115b5906120c8565b60405180910390fd5b60008111611601576040517f08c379a00000000000000000000000000000000000000000000000000000000081526004016115f890612341565b60405180910390fd5b8173ffffffffffffffffffffffffffffffffffffffff166323b872dd3330846040518463ffffffff1660e01b815260040161163e93929190612361565b6020604051808303816000875af115801561165d573d6000803e3d6000fd5b505050506040513d601f19601f82011682018060405250810190611681919061213d565b6116c0576040517f08c379a00000000000000000000000000000000000000000000000000000000081526004016116b7906123e4565b60405180910390fd5b5050565b600033905090565b6000819050919050565b6116df816116cc565b82525050565b60006020820190506116fa60008301846116d6565b92915050565b600080fd5b600080fd5b600073ffffffffffffffffffffffffffffffffffffffff82169050919050565b60006117358261170a565b9050919050565b6117458161172a565b811461175057600080fd5b50565b6000813590506117628161173c565b92915050565b60006020828403121561177e5761177d611700565b5b600061178c84828501611753565b91505092915050565b60008115159050919050565b6117aa81611795565b82525050565b60006020820190506117c560008301846117a1565b92915050565b6117d48161172a565b82525050565b60006020820190506117ef60008301846117cb565b92915050565b6117fe816116cc565b811461180957600080fd5b50565b60008135905061181b816117f5565b92915050565b60006020828403121561183757611836611700565b5b60006118458482850161180c565b91505092915050565b600081519050919050565b600082825260208201905092915050565b60005b8381101561188857808201518184015260208101905061186d565b60008484015250505050565b6000601f19601f8301169050919050565b60006118b08261184e565b6118ba8185611859565b93506118ca81856020860161186a565b6118d381611894565b840191505092915050565b6000610140820190506118f4600083018d6117cb565b8181036020830152611906818c6118a5565b9050611915604083018b6116d6565b8181036060830152611927818a6118a5565b9050818103608083015261193b81896118a5565b905081810360a083015261194f81886118a5565b905081810360c083015261196381876118a5565b905061197260e08301866116d6565b6119806101008301856117a1565b61198e6101208301846117cb565b9b9a5050505050505050505050565b600080fd5b600080fd5b600080fd5b60008083601f8401126119c2576119c161199d565b5b8235905067ffffffffffffffff8111156119df576119de6119a2565b5b6020830191508360018202830111156119fb576119fa6119a7565b5b9250929050565b60008060008060008060808789031215611a1f57611a1e611700565b5b600087013567ffffffffffffffff811115611a3d57611a3c611705565b5b611a4989828a016119ac565b96509650506020611a5c89828a0161180c565b945050604087013567ffffffffffffffff811115611a7d57611a7c611705565b5b611a8989828a016119ac565b93509350506060611a9c89828a01611753565b9150509295509295509295565b60008060408385031215611ac057611abf611700565b5b6000611ace85828601611753565b9250506020611adf8582860161180c565b9150509250929050565b60008060008060008060008060a0898b031215611b0957611b08611700565b5b600089013567ffffffffffffffff811115611b2757611b26611705565b5b611b338b828c016119ac565b98509850506020611b468b828c0161180c565b965050604089013567ffffffffffffffff811115611b6757611b66611705565b5b611b738b828c016119ac565b9550955050606089013567ffffffffffffffff811115611b9657611b95611705565b5b611ba28b828c016119ac565b93509350506080611bb58b828c01611753565b9150509295985092959890939650565b7f496e76616c6964206f7220616c726561647920616363657074656420746f6b6560008201527f6e00000000000000000000000000000000000000000000000000000000000000602082015250565b6000611c21602183611859565b9150611c2c82611bc5565b604082019050919050565b60006020820190508181036000830152611c5081611c14565b9050919050565b7f4e487b7100000000000000000000000000000000000000000000000000000000600052602260045260246000fd5b60006002820490506001821680611c9e57607f821691505b602082108103611cb157611cb0611c57565b5b50919050565b7f4e487b7100000000000000000000000000000000000000000000000000000000600052601160045260246000fd5b6000611cf1826116cc565b91507fffffffffffffffffffffffffffffffffffffffffffffffffffffffffffffffff8203611d2357611d22611cb7565b5b600182019050919050565b7f4e487b7100000000000000000000000000000000000000000000000000000000600052604160045260246000fd5b60008190508160005260206000209050919050565b60006020601f8301049050919050565b600082821b905092915050565b600060088302611dbf7fffffffffffffffffffffffffffffffffffffffffffffffffffffffffffffffff82611d82565b611dc98683611d82565b95508019841693508086168417925050509392505050565b6000819050919050565b6000611e06611e01611dfc846116cc565b611de1565b6116cc565b9050919050565b6000819050919050565b611e2083611deb565b611e34611e2c82611e0d565b848454611d8f565b825550505050565b600090565b611e49611e3c565b611e54818484611e17565b505050565b5b81811015611e7857611e6d600082611e41565b600181019050611e5a565b5050565b601f821115611ebd57611e8e81611d5d565b611e9784611d72565b81016020851015611ea6578190505b611eba611eb285611d72565b830182611e59565b50505b505050565b600082821c905092915050565b6000611ee060001984600802611ec2565b1980831691505092915050565b6000611ef98383611ecf565b9150826002028217905092915050565b611f128261184e565b67ffffffffffffffff811115611f2b57611f2a611d2e565b5b611f358254611c86565b611f40828285611e7c565b600060209050601f831160018114611f735760008415611f61578287015190505b611f6b8582611eed565b865550611fd3565b601f198416611f8186611d5d565b60005b82811015611fa957848901518255600182019150602085019450602081019050611f84565b86831015611fc65784890151611fc2601f891682611ecf565b8355505b6001600288020188555050505b505050505050565b82818337600083830152505050565b6000611ff68385611859565b9350612003838584611fdb565b61200c83611894565b840190509392505050565b600060a082019050818103600083015261203281898b611fea565b905061204160208301886116d6565b8181036040830152612054818688611fea565b905061206360608301856117cb565b61207060808301846116d6565b98975050505050505050565b7f546f6b656e206e6f7420737570706f7274656400000000000000000000000000600082015250565b60006120b2601383611859565b91506120bd8261207c565b602082019050919050565b600060208201905081810360008301526120e1816120a5565b9050919050565b60006040820190506120fd60008301856117cb565b61210a60208301846116d6565b9392505050565b61211a81611795565b811461212557600080fd5b50565b60008151905061213781612111565b92915050565b60006020828403121561215357612152611700565b5b600061216184828501612128565b91505092915050565b7f5769746864726177616c206661696c6564000000000000000000000000000000600082015250565b60006121a0601183611859565b91506121ab8261216a565b602082019050919050565b600060208201905081810360008301526121cf81612193565b9050919050565b60006060820190506121eb60008301866117cb565b6121f860208301856116d6565b61220560408301846116d6565b949350505050565b7f546f6b656e206e6f742061636365707465640000000000000000000000000000600082015250565b6000612243601283611859565b915061224e8261220d565b602082019050919050565b6000602082019050818103600083015261227281612236565b9050919050565b600060c0820190508181036000830152612294818b8d611fea565b90506122a3602083018a6116d6565b81810360408301526122b681888a611fea565b905081810360608301526122cb818688611fea565b90506122da60808301856117cb565b6122e760a08301846116d6565b9a9950505050505050505050565b7f496e76616c696420616d6f756e74000000000000000000000000000000000000600082015250565b600061232b600e83611859565b9150612336826122f5565b602082019050919050565b6000602082019050818103600083015261235a8161231e565b9050919050565b600060608201905061237660008301866117cb565b61238360208301856117cb565b61239060408301846116d6565b949350505050565b7f5061796d656e74206661696c6564000000000000000000000000000000000000600082015250565b60006123ce600e83611859565b91506123d982612398565b602082019050919050565b600060208201905081810360008301526123fd816123c1565b905091905056fea26469706673582212201cfb8f0648250c6b700e5684af785d0acd8ba9484277066a86fa2237850ed2f764736f6c634300081c0033",
  "linkReferences": {},
  "deployedLinkReferences": {}
}