{
  "_format": "hh-sol-artifact-1",
  "contractName": "ChainPay",
  "sourceName": "evm-contracts/contracts/chainpay.sol",
  "abi": [
    {
      "inputs": [
        {
          "internalType": "address",
          "name": "_usdcToken",
          "type": "address"
        }
      ],
      "stateMutability": "nonpayable",
      "type": "constructor"
    },
    {
      "inputs": [
        {
          "internalType": "address",
          "name": "owner",
          "type": "address"
        }
      ],
      "name": "OwnableInvalidOwner",
      "type": "error"
    },
    {
      "inputs": [
        {
          "internalType": "address",
          "name": "account",
          "type": "address"
        }
      ],
      "name": "OwnableUnauthorizedAccount",
      "type": "error"
    },
    {
      "anonymous": false,
      "inputs": [
        {
          "indexed": true,
          "internalType": "address",
          "name": "user",
          "type": "address"
        },
        {
          "indexed": false,
          "internalType": "string",
          "name": "phoneNumber",
          "type": "string"
        },
        {
          "indexed": false,
          "internalType": "uint256",
          "name": "amount",
          "type": "uint256"
        },
        {
          "indexed": false,
          "internalType": "string",
          "name": "network",
          "type": "string"
        },
        {
          "indexed": false,
          "internalType": "address",
          "name": "token",
          "type": "address"
        },
        {
          "indexed": false,
          "internalType": "uint256",
          "name": "timestamp",
          "type": "uint256"
        }
      ],
      "name": "AirtimePurchase",
      "type": "event"
    },
    {
      "anonymous": false,
      "inputs": [
        {
          "indexed": true,
          "internalType": "address",
          "name": "user",
          "type": "address"
        },
        {
          "indexed": false,
          "internalType": "string",
          "name": "billType",
          "type": "string"
        },
        {
          "indexed": false,
          "internalType": "uint256",
          "name": "amount",
          "type": "uint256"
        },
        {
          "indexed": false,
          "internalType": "string",
          "name": "accountNumber",
          "type": "string"
        },
        {
          "indexed": false,
          "internalType": "address",
          "name": "token",
          "type": "address"
        },
        {
          "indexed": false,
          "internalType": "uint256",
          "name": "timestamp",
          "type": "uint256"
        }
      ],
      "name": "BillPayment",
      "type": "event"
    },
    {
      "anonymous": false,
      "inputs": [
        {
          "indexed": true,
          "internalType": "address",
          "name": "user",
          "type": "address"
        },
        {
          "indexed": false,
          "internalType": "string",
          "name": "phoneNumber",
          "type": "string"
        },
        {
          "indexed": false,
          "internalType": "uint256",
          "name": "amount",
          "type": "uint256"
        },
        {
          "indexed": false,
          "internalType": "string",
          "name": "network",
          "type": "string"
        },
        {
          "indexed": false,
          "internalType": "string",
          "name": "dataPlan",
          "type": "string"
        },
        {
          "indexed": false,
          "internalType": "address",
          "name": "token",
          "type": "address"
        },
        {
          "indexed": false,
          "internalType": "uint256",
          "name": "timestamp",
          "type": "uint256"
        }
      ],
      "name": "DataPurchase",
      "type": "event"
    },
    {
      "anonymous": false,
      "inputs": [
        {
          "indexed": true,
          "internalType": "address",
          "name": "previousOwner",
          "type": "address"
        },
        {
          "indexed": true,
          "internalType": "address",
          "name": "newOwner",
          "type": "address"
        }
      ],
      "name": "OwnershipTransferred",
      "type": "event"
    },
    {
      "anonymous": false,
      "inputs": [
        {
          "indexed": true,
          "internalType": "address",
          "name": "token",
          "type": "address"
        }
      ],
      "name": "TokenAdded",
      "type": "event"
    },
    {
      "anonymous": false,
      "inputs": [
        {
          "indexed": true,
          "internalType": "address",
          "name": "token",
          "type": "address"
        }
      ],
      "name": "TokenRemoved",
      "type": "event"
    },
    {
      "anonymous": false,
      "inputs": [
        {
          "indexed": true,
          "internalType": "address",
          "name": "admin",
          "type": "address"
        },
        {
          "indexed": false,
          "internalType": "address",
          "name": "token",
          "type": "address"
        },
        {
          "indexed": false,
          "internalType": "uint256",
          "name": "amount",
          "type": "uint256"
        },
        {
          "indexed": false,
          "internalType": "uint256",
          "name": "timestamp",
          "type": "uint256"
        }
      ],
      "name": "Withdrawal",
      "type": "event"
    },
    {
      "inputs": [
        {
          "internalType": "address",
          "name": "",
          "type": "address"
        }
      ],
      "name": "acceptedTokens",
      "outputs": [
        {
          "internalType": "bool",
          "name": "",
          "type": "bool"
        }
      ],
      "stateMutability": "view",
      "type": "function"
    },
    {
      "inputs": [
        {
          "internalType": "address",
          "name": "token",
          "type": "address"
        }
      ],
      "name": "addAcceptedToken",
      "outputs": [],
      "stateMutability": "nonpayable",
      "type": "function"
    },
    {
      "inputs": [
        {
          "internalType": "string",
          "name": "phoneNumber",
          "type": "string"
        },
        {
          "internalType": "uint256",
          "name": "amount",
          "type": "uint256"
        },
        {
          "internalType": "string",
          "name": "network",
          "type": "string"
        },
        {
          "internalType": "address",
          "name": "token",
          "type": "address"
        }
      ],
      "name": "buyAirtime",
      "outputs": [],
      "stateMutability": "nonpayable",
      "type": "function"
    },
    {
      "inputs": [
        {
          "internalType": "string",
          "name": "phoneNumber",
          "type": "string"
        },
        {
          "internalType": "uint256",
          "name": "amount",
          "type": "uint256"
        },
        {
          "internalType": "string",
          "name": "network",
          "type": "string"
        },
        {
          "internalType": "string",
          "name": "dataPlan",
          "type": "string"
        },
        {
          "internalType": "address",
          "name": "token",
          "type": "address"
        }
      ],
      "name": "buyData",
      "outputs": [],
      "stateMutability": "nonpayable",
      "type": "function"
    },
    {
      "inputs": [],
      "name": "owner",
      "outputs": [
        {
          "internalType": "address",
          "name": "",
          "type": "address"
        }
      ],
      "stateMutability": "view",
      "type": "function"
    },
    {
      "inputs": [
        {
          "internalType": "string",
          "name": "billType",
          "type": "string"
        },
        {
          "internalType": "uint256",
          "name": "amount",
          "type": "uint256"
        },
        {
          "internalType": "string",
          "name": "accountNumber",
          "type": "string"
        },
        {
          "internalType": "address",
          "name": "token",
          "type": "address"
        }
      ],
      "name": "payBill",
      "outputs": [],
      "stateMutability": "nonpayable",
      "type": "function"
    },
    {
      "inputs": [
        {
          "internalType": "address",
          "name": "token",
          "type": "address"
        }
      ],
      "name": "removeAcceptedToken",
      "outputs": [],
      "stateMutability": "nonpayable",
      "type": "function"
    },
    {
      "inputs": [],
      "name": "renounceOwnership",
      "outputs": [],
      "stateMutability": "nonpayable",
      "type": "function"
    },
    {
      "inputs": [],
      "name": "transactionCounter",
      "outputs": [
        {
          "internalType": "uint256",
          "name": "",
          "type": "uint256"
        }
      ],
      "stateMutability": "view",
      "type": "function"
    },
    {
      "inputs": [
        {
          "internalType": "uint256",
          "name": "",
          "type": "uint256"
        }
      ],
      "name": "transactions",
      "outputs": [
        {
          "internalType": "address",
          "name": "user",
          "type": "address"
        },
        {
          "internalType": "string",
          "name": "phoneNumber",
          "type": "string"
        },
        {
          "internalType": "uint256",
          "name": "amount",
          "type": "uint256"
        },
        {
          "internalType": "string",
          "name": "serviceType",
          "type": "string"
        },
        {
          "internalType": "string",
          "name": "network",
          "type": "string"
        },
        {
          "internalType": "string",
          "name": "dataPlan",
          "type": "string"
        },
        {
          "internalType": "string",
          "name": "billType",
          "type": "string"
        },
        {
          "internalType": "uint256",
          "name": "timestamp",
          "type": "uint256"
        },
        {
          "internalType": "bool",
          "name": "completed",
          "type": "bool"
        },
        {
          "internalType": "address",
          "name": "token",
          "type": "address"
        }
      ],
      "stateMutability": "view",
      "type": "function"
    },
    {
      "inputs": [
        {
          "internalType": "address",
          "name": "newOwner",
          "type": "address"
        }
      ],
      "name": "transferOwnership",
      "outputs": [],
      "stateMutability": "nonpayable",
      "type": "function"
    },
    {
      "inputs": [
        {
          "internalType": "address",
          "name": "token",
          "type": "address"
        },
        {
          "internalType": "uint256",
          "name": "amount",
          "type": "uint256"
        }
      ],
      "name": "withdrawFunds",
      "outputs": [],
      "stateMutability": "nonpayable",
      "type": "function"
    }
  ],
  "bytecode": "0x608060405234801561001057600080fd5b5060405161198d38038061198d83398101604081905261002f916100d9565b338061005557604051631e4fbdf760e01b81526000600482015260240160405180910390fd5b61005e81610089565b506001600160a01b03166000908152600160208190526040909120805460ff19169091179055610109565b600080546001600160a01b038381166001600160a01b0319831681178455604051919092169283917f8be0079c531659141344cd1fd0a4f28419497f9722a3daafe3b4186f6b6457e09190a35050565b6000602082840312156100eb57600080fd5b81516001600160a01b038116811461010257600080fd5b9392505050565b611875806101186000396000f3fe608060405234801561001057600080fd5b50600436106100d45760003560e01c8063b663b8a011610081578063daf1c8591161005b578063daf1c859146101c2578063daf2d90b146101d5578063f2fde38b146101e857600080fd5b8063b663b8a014610189578063c10753291461019c578063d8134a23146101af57600080fd5b806382dc4a05116100b257806382dc4a05146101125780638da5cb5b146101455780639ace38c21461016057600080fd5b806314e887e8146100d95780633eee83f1146100f5578063715018a61461010a575b600080fd5b6100e260035481565b6040519081526020015b60405180910390f35b6101086101033660046112d6565b6101fb565b005b6101086102fa565b6101356101203660046112d6565b60016020526000908152604090205460ff1681565b60405190151581526020016100ec565b6000546040516001600160a01b0390911681526020016100ec565b61017361016e3660046112f8565b61030e565b6040516100ec9a99989796959493929190611357565b610108610197366004611446565b61061a565b6101086101aa3660046114d4565b6108ae565b6101086101bd3660046112d6565b610a43565b6101086101d03660046114fe565b610afc565b6101086101e3366004611446565b610dbe565b6101086101f63660046112d6565b611028565b61020361107f565b6001600160a01b0381161580159061023457506001600160a01b03811660009081526001602052604090205460ff16155b6102ab5760405162461bcd60e51b815260206004820152602160248201527f496e76616c6964206f7220616c726561647920616363657074656420746f6b6560448201527f6e0000000000000000000000000000000000000000000000000000000000000060648201526084015b60405180910390fd5b6001600160a01b0381166000818152600160208190526040808320805460ff1916909217909155517f784c8f4dbf0ffedd6e72c76501c545a70f8b203b30a26ce542bf92ba87c248a49190a250565b61030261107f565b61030c60006110c5565b565b600260205260009081526040902080546001820180546001600160a01b03909216929161033a906115be565b80601f0160208091040260200160405190810160405280929190818152602001828054610366906115be565b80156103b35780601f10610388576101008083540402835291602001916103b3565b820191906000526020600020905b81548152906001019060200180831161039657829003601f168201915b5050505050908060020154908060030180546103ce906115be565b80601f01602080910402602001604051908101604052809291908181526020018280546103fa906115be565b80156104475780601f1061041c57610100808354040283529160200191610447565b820191906000526020600020905b81548152906001019060200180831161042a57829003601f168201915b50505050509080600401805461045c906115be565b80601f0160208091040260200160405190810160405280929190818152602001828054610488906115be565b80156104d55780601f106104aa576101008083540402835291602001916104d5565b820191906000526020600020905b8154815290600101906020018083116104b857829003601f168201915b5050505050908060050180546104ea906115be565b80601f0160208091040260200160405190810160405280929190818152602001828054610516906115be565b80156105635780601f1061053857610100808354040283529160200191610563565b820191906000526020600020905b81548152906001019060200180831161054657829003601f168201915b505050505090806006018054610578906115be565b80601f01602080910402602001604051908101604052809291908181526020018280546105a4906115be565b80156105f15780601f106105c6576101008083540402835291602001916105f1565b820191906000526020600020905b8154815290600101906020018083116105d457829003601f168201915b50505050600783015460089093015491929160ff8116915061010090046001600160a01b03168a565b6106248185611122565b604051806101400160405280336001600160a01b0316815260200187878080601f0160208091040260200160405190810160405280939291908181526020018383808284376000920191909152505050908252506020808201879052604080518082018252600781527f61697274696d650000000000000000000000000000000000000000000000000081840152818401528051601f870183900483028101830190915285815260609092019190869086908190840183828082843760009201829052509385525050604080516020818101835284825280860191909152815190810182528381529084015250426060830152608082018190526001600160a01b03841660a0909201919091526003805460029291908290610745906115f8565b918290555081526020808201929092526040016000208251815473ffffffffffffffffffffffffffffffffffffffff19166001600160a01b039091161781559082015160018201906107979082611684565b5060408201516002820155606082015160038201906107b69082611684565b50608082015160048201906107cb9082611684565b5060a082015160058201906107e09082611684565b5060c082015160068201906107f59082611684565b5060e082015160078201556101008083015160089092018054610120909401516001600160a01b031690910274ffffffffffffffffffffffffffffffffffffffff00199215159290921674ffffffffffffffffffffffffffffffffffffffffff199093169290921717905560405133907f3fbf976149ba1c4ec0505321604be15f5c81ce29256fef5e89e51eb7c751a6aa9061089e90899089908990899089908990429061176c565b60405180910390a2505050505050565b6108b661107f565b6001600160a01b03821660009081526001602052604090205460ff1661091e5760405162461bcd60e51b815260206004820152601360248201527f546f6b656e206e6f7420737570706f727465640000000000000000000000000060448201526064016102a2565b6040517fa9059cbb000000000000000000000000000000000000000000000000000000008152336004820152602481018290526001600160a01b0383169063a9059cbb906044016020604051808303816000875af1158015610984573d6000803e3d6000fd5b505050506040513d601f19601f820116820180604052508101906109a891906117b9565b6109f45760405162461bcd60e51b815260206004820152601160248201527f5769746864726177616c206661696c656400000000000000000000000000000060448201526064016102a2565b604080516001600160a01b0384168152602081018390524281830152905133917fc2b4a290c20fb28939d29f102514fbffd2b73c059ffba8b78250c94161d5fcc6919081900360600190a25050565b610a4b61107f565b6001600160a01b03811660009081526001602052604090205460ff16610ab35760405162461bcd60e51b815260206004820152601260248201527f546f6b656e206e6f74206163636570746564000000000000000000000000000060448201526064016102a2565b6001600160a01b038116600081815260016020526040808220805460ff19169055517f4c910b69fe65a61f7531b9c5042b2329ca7179c77290aa7e2eb3afa3c8511fd39190a250565b610b068187611122565b604051806101400160405280336001600160a01b0316815260200189898080601f0160208091040260200160405190810160405280939291908181526020018383808284376000920191909152505050908252506020808201899052604080518082018252600481527f646174610000000000000000000000000000000000000000000000000000000081840152818401528051601f8901839004830281018301909152878152606090920191908890889081908401838280828437600092019190915250505090825250604080516020601f870181900481028201810190925285815291810191908690869081908401838280828437600092018290525093855250506040805160208181018352848252850152429084015250606082018190526001600160a01b0384166080909201919091526003805460029291908290610c4f906115f8565b918290555081526020808201929092526040016000208251815473ffffffffffffffffffffffffffffffffffffffff19166001600160a01b03909116178155908201516001820190610ca19082611684565b506040820151600282015560608201516003820190610cc09082611684565b5060808201516004820190610cd59082611684565b5060a08201516005820190610cea9082611684565b5060c08201516006820190610cff9082611684565b5060e082015160078201556101008083015160089092018054610120909401516001600160a01b031690910274ffffffffffffffffffffffffffffffffffffffff00199215159290921674ffffffffffffffffffffffffffffffffffffffffff199093169290921717905560405133907f4bfe57ae3ef90d84db8eaca18befabcef1f936f0efb9eaf2c05cc16fcdacb6a090610dac908b908b908b908b908b908b908b908b9042906117db565b60405180910390a25050505050505050565b610dc88185611122565b604051806101400160405280336001600160a01b031681526020016040518060200160405280600081525081526020018581526020016040518060400160405280600481526020017f62696c6c00000000000000000000000000000000000000000000000000000000815250815260200160405180602001604052806000815250815260200160405180602001604052806000815250815260200187878080601f0160208091040260200160405190810160405280939291908181526020018383808284376000920182905250938552505042602084015250604082018190526001600160a01b0384166060909201919091526003805460029291908290610ecf906115f8565b918290555081526020808201929092526040016000208251815473ffffffffffffffffffffffffffffffffffffffff19166001600160a01b03909116178155908201516001820190610f219082611684565b506040820151600282015560608201516003820190610f409082611684565b5060808201516004820190610f559082611684565b5060a08201516005820190610f6a9082611684565b5060c08201516006820190610f7f9082611684565b5060e082015160078201556101008083015160089092018054610120909401516001600160a01b031690910274ffffffffffffffffffffffffffffffffffffffff00199215159290921674ffffffffffffffffffffffffffffffffffffffffff199093169290921717905560405133907fd7b439b6fd920db6faf913f7e27cf8de773ee0f5d96c69991e26bca953c161f69061089e90899089908990899089908990429061176c565b61103061107f565b6001600160a01b038116611073576040517f1e4fbdf7000000000000000000000000000000000000000000000000000000008152600060048201526024016102a2565b61107c816110c5565b50565b6000546001600160a01b0316331461030c576040517f118cdaa70000000000000000000000000000000000000000000000000000000081523360048201526024016102a2565b600080546001600160a01b0383811673ffffffffffffffffffffffffffffffffffffffff19831681178455604051919092169283917f8be0079c531659141344cd1fd0a4f28419497f9722a3daafe3b4186f6b6457e09190a35050565b6001600160a01b03821660009081526001602052604090205460ff1661118a5760405162461bcd60e51b815260206004820152601360248201527f546f6b656e206e6f7420737570706f727465640000000000000000000000000060448201526064016102a2565b600081116111da5760405162461bcd60e51b815260206004820152600e60248201527f496e76616c696420616d6f756e7400000000000000000000000000000000000060448201526064016102a2565b6040517f23b872dd000000000000000000000000000000000000000000000000000000008152336004820152306024820152604481018290526001600160a01b038316906323b872dd906064016020604051808303816000875af1158015611246573d6000803e3d6000fd5b505050506040513d601f19601f8201168201806040525081019061126a91906117b9565b6112b65760405162461bcd60e51b815260206004820152600e60248201527f5061796d656e74206661696c656400000000000000000000000000000000000060448201526064016102a2565b5050565b80356001600160a01b03811681146112d157600080fd5b919050565b6000602082840312156112e857600080fd5b6112f1826112ba565b9392505050565b60006020828403121561130a57600080fd5b5035919050565b6000815180845260005b818110156113375760208185018101518683018201520161131b565b506000602082860101526020601f19601f83011685010191505092915050565b6001600160a01b038b1681526101406020820152600061137b61014083018c611311565b8a60408401528281036060840152611393818b611311565b905082810360808401526113a7818a611311565b905082810360a08401526113bb8189611311565b905082810360c08401526113cf8188611311565b60e084019690965250509115156101008301526001600160a01b031661012090910152979650505050505050565b60008083601f84011261140f57600080fd5b50813567ffffffffffffffff81111561142757600080fd5b60208301915083602082850101111561143f57600080fd5b9250929050565b6000806000806000806080878903121561145f57600080fd5b863567ffffffffffffffff81111561147657600080fd5b61148289828a016113fd565b90975095505060208701359350604087013567ffffffffffffffff8111156114a957600080fd5b6114b589828a016113fd565b90945092506114c89050606088016112ba565b90509295509295509295565b600080604083850312156114e757600080fd5b6114f0836112ba565b946020939093013593505050565b60008060008060008060008060a0898b03121561151a57600080fd5b883567ffffffffffffffff81111561153157600080fd5b61153d8b828c016113fd565b90995097505060208901359550604089013567ffffffffffffffff81111561156457600080fd5b6115708b828c016113fd565b909650945050606089013567ffffffffffffffff81111561159057600080fd5b61159c8b828c016113fd565b90945092506115af905060808a016112ba565b90509295985092959890939650565b600181811c908216806115d257607f821691505b6020821081036115f257634e487b7160e01b600052602260045260246000fd5b50919050565b60006001820161161857634e487b7160e01b600052601160045260246000fd5b5060010190565b634e487b7160e01b600052604160045260246000fd5b601f82111561167f57806000526020600020601f840160051c8101602085101561165c5750805b601f840160051c820191505b8181101561167c5760008155600101611668565b50505b505050565b815167ffffffffffffffff81111561169e5761169e61161f565b6116b2816116ac84546115be565b84611635565b6020601f8211600181146116e657600083156116ce5750848201515b600019600385901b1c1916600184901b17845561167c565b600084815260208120601f198516915b8281101561171657878501518255602094850194600190920191016116f6565b50848210156117345786840151600019600387901b60f8161c191681555b50505050600190811b01905550565b81835281816020850137506000828201602090810191909152601f909101601f19169091010190565b60a08152600061178060a08301898b611743565b8760208401528281036040840152611799818789611743565b6001600160a01b0395909516606084015250506080015295945050505050565b6000602082840312156117cb57600080fd5b815180151581146112f157600080fd5b60c0815260006117ef60c083018b8d611743565b896020840152828103604084015261180881898b611743565b9050828103606084015261181d818789611743565b6001600160a01b03959095166080840152505060a0015297965050505050505056fea26469706673582212205a62fe1b32a0dba5951b0bc2f81d2790118a4ce982c59bb9a34c4543d69f6cb864736f6c634300081c0033",
  "linkReferences": {},
  "deployedLinkReferences": {}
}